{
  "_format": "hh-sol-artifact-1",
  "contractName": "CollateralManager",
  "sourceName": "Contracts/CollateralManager.sol",
  "abi": [
    {
      "inputs": [
        {
          "internalType": "address",
          "name": "mixerAddress",
          "type": "address"
        },
        {
          "internalType": "address",
          "name": "poolAddress",
          "type": "address"
        }
      ],
      "stateMutability": "nonpayable",
      "type": "constructor"
    },
    {
      "inputs": [
        {
          "internalType": "bytes32",
          "name": "",
          "type": "bytes32"
        }
      ],
      "name": "collaterals",
      "outputs": [
        {
          "internalType": "bytes32",
          "name": "commitment",
          "type": "bytes32"
        },
        {
          "internalType": "bool",
          "name": "locked",
          "type": "bool"
        },
        {
          "internalType": "uint256",
          "name": "loanId",
          "type": "uint256"
        }
      ],
      "stateMutability": "view",
      "type": "function"
    },
    {
      "inputs": [
        {
          "internalType": "bytes32",
          "name": "commitment",
          "type": "bytes32"
        },
        {
          "internalType": "address",
          "name": "borrowToken",
          "type": "address"
        },
        {
          "internalType": "uint256",
          "name": "borrowAmount",
          "type": "uint256"
        }
      ],
      "name": "lockAndBorrow",
      "outputs": [],
      "stateMutability": "nonpayable",
      "type": "function"
    },
    {
      "inputs": [],
      "name": "mixer",
      "outputs": [
        {
          "internalType": "contract Mixer",
          "name": "",
          "type": "address"
        }
      ],
      "stateMutability": "view",
      "type": "function"
    },
    {
      "inputs": [],
      "name": "pool",
      "outputs": [
        {
          "internalType": "contract LendingPool",
          "name": "",
          "type": "address"
        }
      ],
      "stateMutability": "view",
      "type": "function"
    },
    {
      "inputs": [
        {
          "internalType": "bytes32",
          "name": "commitment",
          "type": "bytes32"
        },
        {
          "internalType": "uint256",
          "name": "repayAmount",
          "type": "uint256"
        }
      ],
      "name": "repayAndUnlock",
      "outputs": [],
      "stateMutability": "nonpayable",
      "type": "function"
    }
  ],
  "bytecode": "0x608060405234801561001057600080fd5b5060405161084138038061084183398101604081905261002f916100d8565b6001600160a01b0382161580159061004f57506001600160a01b03811615155b61008b5760405162461bcd60e51b81526020600482015260096024820152683d32b9379030b2323960b91b604482015260640160405180910390fd5b600080546001600160a01b039384166001600160a01b0319918216179091556001805492909316911617905561010b565b80516001600160a01b03811681146100d357600080fd5b919050565b600080604083850312156100eb57600080fd5b6100f4836100bc565b9150610102602084016100bc565b90509250929050565b6107278061011a6000396000f3fe608060405234801561001057600080fd5b50600436106100575760003560e01c806316f0115b1461005c57806383c5cc061461008c578063b8f99cd9146100db578063cb2427d6146100f0578063f6bed05914610103575b600080fd5b60015461006f906001600160a01b031681565b6040516001600160a01b0390911681526020015b60405180910390f35b6100c061009a36600461058b565b600260208190526000918252604090912080546001820154919092015460ff9091169083565b60408051938452911515602084015290820152606001610083565b6100ee6100e93660046105a4565b610116565b005b6100ee6100fe3660046105de565b61031d565b60005461006f906001600160a01b031681565b6000828152600260205260409020600181015460ff16801561013c575060008160020154115b61017f5760405162461bcd60e51b815260206004820152600f60248201526e3737ba103637b1b5b2b217b637b0b760891b60448201526064015b60405180910390fd5b60015460028201546040516321c3ad7160e11b81526004810191909152602481018490523360448201526001600160a01b03909116906343875ae290606401600060405180830381600087803b1580156101d857600080fd5b505af11580156101ec573d6000803e3d6000fd5b50506001546002840154604051631c3d878d60e31b81526004810191909152600093506001600160a01b03909116915063e1ec3c689060240160a060405180830381865afa158015610242573d6000803e3d6000fd5b505050506040513d601f19601f82011682018060405250810190610266919061062b565b945050505050806102a65760405162461bcd60e51b815260206004820152600a6024820152691b9bdd081c995c185a5960b21b6044820152606401610176565b60005460405163764dad9d60e11b8152600481018690526001600160a01b039091169063ec9b5b3a90602401600060405180830381600087803b1580156102ec57600080fd5b505af1158015610300573d6000803e3d6000fd5b50505060018301805460ff19169055505060006002909101555050565b60008054604051637a86983f60e01b8152600481018690528291829182916001600160a01b031690637a86983f90602401608060405180830381865afa15801561036b573d6000803e3d6000fd5b505050506040513d601f19601f8201168201806040525081019061038f9190610688565b93509350935093506000831180156103a5575081155b80156103af575080155b6103ea5760405162461bcd60e51b815260206004820152600c60248201526b696e76616c6964206e6f746560a01b6044820152606401610176565b60008781526002602052604090206001015460ff161561043d5760405162461bcd60e51b815260206004820152600e60248201526d185b1c9958591e481b1bd8dad95960921b6044820152606401610176565b6000546040516301670ba960e01b8152600481018990526001600160a01b03909116906301670ba990602401600060405180830381600087803b15801561048357600080fd5b505af1158015610497573d6000803e3d6000fd5b5050604080516060810182528a81526001602080830182815260008486018181528f8252600293849052868220955186559151858501805460ff19169115159190911790559051939091019290925554915163a31da3df60e01b81523360048201526001600160a01b038b81166024830152604482018b9052606482018990529194509116915063a31da3df906084016020604051808303816000875af1158015610546573d6000803e3d6000fd5b505050506040513d601f19601f8201168201806040525081019061056a91906106d8565b60009889526002602081905260409099209098019790975550505050505050565b60006020828403121561059d57600080fd5b5035919050565b600080604083850312156105b757600080fd5b50508035926020909101359150565b6001600160a01b03811681146105db57600080fd5b50565b6000806000606084860312156105f357600080fd5b833592506020840135610605816105c6565b929592945050506040919091013590565b8051801515811461062657600080fd5b919050565b600080600080600060a0868803121561064357600080fd5b855161064e816105c6565b602087015190955061065f816105c6565b604087015160608801519195509350915061067c60808701610616565b90509295509295909350565b6000806000806080858703121561069e57600080fd5b84516106a9816105c6565b602086015190945092506106bf60408601610616565b91506106cd60608601610616565b905092959194509250565b6000602082840312156106ea57600080fd5b505191905056fea2646970667358221220bd53e3b28b6b087f5d725c2c75d547080c3ebac3ff209bd2b86bc73e5b0416bf64736f6c63430008110033",
  "linkReferences": {},
  "deployedLinkReferences": {}
}