{
  "_format": "hh-sol-artifact-1",
  "contractName": "LendingPool",
  "sourceName": "contracts/LendingPool.sol",
  "abi": [
    {
      "anonymous": false,
      "inputs": [
        {
          "indexed": true,
          "internalType": "uint256",
          "name": "loanId",
          "type": "uint256"
        },
        {
          "indexed": true,
          "internalType": "address",
          "name": "borrower",
          "type": "address"
        },
        {
          "indexed": false,
          "internalType": "address",
          "name": "token",
          "type": "address"
        },
        {
          "indexed": false,
          "internalType": "uint256",
          "name": "amount",
          "type": "uint256"
        },
        {
          "indexed": false,
          "internalType": "uint256",
          "name": "collateralAmount",
          "type": "uint256"
        }
      ],
      "name": "Borrow",
      "type": "event"
    },
    {
      "anonymous": false,
      "inputs": [
        {
          "indexed": true,
          "internalType": "address",
          "name": "from",
          "type": "address"
        },
        {
          "indexed": false,
          "internalType": "address",
          "name": "token",
          "type": "address"
        },
        {
          "indexed": false,
          "internalType": "uint256",
          "name": "amount",
          "type": "uint256"
        }
      ],
      "name": "Fund",
      "type": "event"
    },
    {
      "anonymous": false,
      "inputs": [
        {
          "indexed": true,
          "internalType": "uint256",
          "name": "loanId",
          "type": "uint256"
        },
        {
          "indexed": true,
          "internalType": "address",
          "name": "payer",
          "type": "address"
        },
        {
          "indexed": false,
          "internalType": "uint256",
          "name": "amount",
          "type": "uint256"
        }
      ],
      "name": "Repay",
      "type": "event"
    },
    {
      "inputs": [
        {
          "internalType": "address",
          "name": "borrower",
          "type": "address"
        },
        {
          "internalType": "address",
          "name": "token",
          "type": "address"
        },
        {
          "internalType": "uint256",
          "name": "amount",
          "type": "uint256"
        },
        {
          "internalType": "uint256",
          "name": "collateralAmount",
          "type": "uint256"
        }
      ],
      "name": "borrowFor",
      "outputs": [
        {
          "internalType": "uint256",
          "name": "",
          "type": "uint256"
        }
      ],
      "stateMutability": "nonpayable",
      "type": "function"
    },
    {
      "inputs": [
        {
          "internalType": "address",
          "name": "token",
          "type": "address"
        },
        {
          "internalType": "uint256",
          "name": "amount",
          "type": "uint256"
        }
      ],
      "name": "fund",
      "outputs": [],
      "stateMutability": "nonpayable",
      "type": "function"
    },
    {
      "inputs": [],
      "name": "loanCounter",
      "outputs": [
        {
          "internalType": "uint256",
          "name": "",
          "type": "uint256"
        }
      ],
      "stateMutability": "view",
      "type": "function"
    },
    {
      "inputs": [
        {
          "internalType": "uint256",
          "name": "",
          "type": "uint256"
        }
      ],
      "name": "loans",
      "outputs": [
        {
          "internalType": "address",
          "name": "borrower",
          "type": "address"
        },
        {
          "internalType": "address",
          "name": "token",
          "type": "address"
        },
        {
          "internalType": "uint256",
          "name": "amount",
          "type": "uint256"
        },
        {
          "internalType": "uint256",
          "name": "collateralAmount",
          "type": "uint256"
        },
        {
          "internalType": "bool",
          "name": "repaid",
          "type": "bool"
        }
      ],
      "stateMutability": "view",
      "type": "function"
    },
    {
      "inputs": [
        {
          "internalType": "uint256",
          "name": "loanId",
          "type": "uint256"
        },
        {
          "internalType": "uint256",
          "name": "amount",
          "type": "uint256"
        },
        {
          "internalType": "address",
          "name": "payer",
          "type": "address"
        }
      ],
      "name": "repayFrom",
      "outputs": [],
      "stateMutability": "nonpayable",
      "type": "function"
    }
  ],
  "bytecode": "0x608060405234801561001057600080fd5b50611086806100206000396000f3fe608060405234801561001057600080fd5b50600436106100575760003560e01c806334d9289e1461005c57806343875ae21461007a5780637b1837de14610096578063a31da3df146100b2578063e1ec3c68146100e2575b600080fd5b610064610116565b6040516100719190610939565b60405180910390f35b610094600480360381019061008f91906109e3565b61011c565b005b6100b060048036038101906100ab9190610a36565b6102c8565b005b6100cc60048036038101906100c79190610a76565b6103c5565b6040516100d99190610939565b60405180910390f35b6100fc60048036038101906100f79190610add565b61070a565b60405161010d959493929190610b34565b60405180910390f35b60005481565b60006001600085815260200190815260200160002090508060040160009054906101000a900460ff1615610185576040517f08c379a000000000000000000000000000000000000000000000000000000000815260040161017c90610be4565b60405180910390fd5b600073ffffffffffffffffffffffffffffffffffffffff168273ffffffffffffffffffffffffffffffffffffffff16141580156101c6575080600201548310155b610205576040517f08c379a00000000000000000000000000000000000000000000000000000000081526004016101fc90610c50565b60405180910390fd5b6102568230858460010160009054906101000a900473ffffffffffffffffffffffffffffffffffffffff1673ffffffffffffffffffffffffffffffffffffffff1661078d909392919063ffffffff16565b60018160040160006101000a81548160ff0219169083151502179055508173ffffffffffffffffffffffffffffffffffffffff16847fc030da26557a891f33dbaee473c007cdfa269acb9628d7d12e744ec6923ed2b3856040516102ba9190610939565b60405180910390a350505050565b600073ffffffffffffffffffffffffffffffffffffffff168273ffffffffffffffffffffffffffffffffffffffff16141580156103055750600081115b610344576040517f08c379a000000000000000000000000000000000000000000000000000000000815260040161033b90610cbc565b60405180910390fd5b6103713330838573ffffffffffffffffffffffffffffffffffffffff1661078d909392919063ffffffff16565b3373ffffffffffffffffffffffffffffffffffffffff167f2d48ac6acd9c250f93c75e6a8dd61f6f1c062b7f83c1f604cf41a3352df683fc83836040516103b9929190610cdc565b60405180910390a25050565b60008073ffffffffffffffffffffffffffffffffffffffff168573ffffffffffffffffffffffffffffffffffffffff16141580156104305750600073ffffffffffffffffffffffffffffffffffffffff168473ffffffffffffffffffffffffffffffffffffffff1614155b801561043c5750600083115b61047b576040517f08c379a000000000000000000000000000000000000000000000000000000000815260040161047290610d51565b60405180910390fd5b828473ffffffffffffffffffffffffffffffffffffffff166370a08231306040518263ffffffff1660e01b81526004016104b59190610d71565b602060405180830381865afa1580156104d2573d6000803e3d6000fd5b505050506040513d601f19601f820116820180604052508101906104f69190610da1565b1015610537576040517f08c379a000000000000000000000000000000000000000000000000000000000815260040161052e90610e1a565b60405180910390fd5b60008081548092919061054990610e69565b91905055506040518060a001604052808673ffffffffffffffffffffffffffffffffffffffff1681526020018573ffffffffffffffffffffffffffffffffffffffff16815260200184815260200183815260200160001515815250600160008054815260200190815260200160002060008201518160000160006101000a81548173ffffffffffffffffffffffffffffffffffffffff021916908373ffffffffffffffffffffffffffffffffffffffff16021790555060208201518160010160006101000a81548173ffffffffffffffffffffffffffffffffffffffff021916908373ffffffffffffffffffffffffffffffffffffffff160217905550604082015181600201556060820151816003015560808201518160040160006101000a81548160ff0219169083151502179055509050506106a885848673ffffffffffffffffffffffffffffffffffffffff166108589092919063ffffffff16565b8473ffffffffffffffffffffffffffffffffffffffff166000547fef18174796a5d2f91d51dc5e907a4d7867bbd6e800f6225168e0453d581d0dcd8686866040516106f593929190610eb1565b60405180910390a36000549050949350505050565b60016020528060005260406000206000915090508060000160009054906101000a900473ffffffffffffffffffffffffffffffffffffffff16908060010160009054906101000a900473ffffffffffffffffffffffffffffffffffffffff16908060020154908060030154908060040160009054906101000a900460ff16905085565b60008473ffffffffffffffffffffffffffffffffffffffff166323b872dd8585856040518463ffffffff1660e01b81526004016107cc93929190610ee8565b6020604051808303816000875af11580156107eb573d6000803e3d6000fd5b505050506040513d601f19601f8201168201806040525081019061080f9190610f4b565b905080610851576040517f08c379a000000000000000000000000000000000000000000000000000000000815260040161084890610fc4565b60405180910390fd5b5050505050565b60008373ffffffffffffffffffffffffffffffffffffffff1663a9059cbb84846040518363ffffffff1660e01b8152600401610895929190610cdc565b6020604051808303816000875af11580156108b4573d6000803e3d6000fd5b505050506040513d601f19601f820116820180604052508101906108d89190610f4b565b90508061091a576040517f08c379a000000000000000000000000000000000000000000000000000000000815260040161091190611030565b60405180910390fd5b50505050565b6000819050919050565b61093381610920565b82525050565b600060208201905061094e600083018461092a565b92915050565b600080fd5b61096281610920565b811461096d57600080fd5b50565b60008135905061097f81610959565b92915050565b600073ffffffffffffffffffffffffffffffffffffffff82169050919050565b60006109b082610985565b9050919050565b6109c0816109a5565b81146109cb57600080fd5b50565b6000813590506109dd816109b7565b92915050565b6000806000606084860312156109fc576109fb610954565b5b6000610a0a86828701610970565b9350506020610a1b86828701610970565b9250506040610a2c868287016109ce565b9150509250925092565b60008060408385031215610a4d57610a4c610954565b5b6000610a5b858286016109ce565b9250506020610a6c85828601610970565b9150509250929050565b60008060008060808587031215610a9057610a8f610954565b5b6000610a9e878288016109ce565b9450506020610aaf878288016109ce565b9350506040610ac087828801610970565b9250506060610ad187828801610970565b91505092959194509250565b600060208284031215610af357610af2610954565b5b6000610b0184828501610970565b91505092915050565b610b13816109a5565b82525050565b60008115159050919050565b610b2e81610b19565b82525050565b600060a082019050610b496000830188610b0a565b610b566020830187610b0a565b610b63604083018661092a565b610b70606083018561092a565b610b7d6080830184610b25565b9695505050505050565b600082825260208201905092915050565b7f7265706169640000000000000000000000000000000000000000000000000000600082015250565b6000610bce600683610b87565b9150610bd982610b98565b602082019050919050565b60006020820190508181036000830152610bfd81610bc1565b9050919050565b7f6261642072657061790000000000000000000000000000000000000000000000600082015250565b6000610c3a600983610b87565b9150610c4582610c04565b602082019050919050565b60006020820190508181036000830152610c6981610c2d565b9050919050565b7f6261642066756e64000000000000000000000000000000000000000000000000600082015250565b6000610ca6600883610b87565b9150610cb182610c70565b602082019050919050565b60006020820190508181036000830152610cd581610c99565b9050919050565b6000604082019050610cf16000830185610b0a565b610cfe602083018461092a565b9392505050565b7f6261642061726773000000000000000000000000000000000000000000000000600082015250565b6000610d3b600883610b87565b9150610d4682610d05565b602082019050919050565b60006020820190508181036000830152610d6a81610d2e565b9050919050565b6000602082019050610d866000830184610b0a565b92915050565b600081519050610d9b81610959565b92915050565b600060208284031215610db757610db6610954565b5b6000610dc584828501610d8c565b91505092915050565b7f6e6f206c69717569646974790000000000000000000000000000000000000000600082015250565b6000610e04600c83610b87565b9150610e0f82610dce565b602082019050919050565b60006020820190508181036000830152610e3381610df7565b9050919050565b7f4e487b7100000000000000000000000000000000000000000000000000000000600052601160045260246000fd5b6000610e7482610920565b91507fffffffffffffffffffffffffffffffffffffffffffffffffffffffffffffffff8203610ea657610ea5610e3a565b5b600182019050919050565b6000606082019050610ec66000830186610b0a565b610ed3602083018561092a565b610ee0604083018461092a565b949350505050565b6000606082019050610efd6000830186610b0a565b610f0a6020830185610b0a565b610f17604083018461092a565b949350505050565b610f2881610b19565b8114610f3357600080fd5b50565b600081519050610f4581610f1f565b92915050565b600060208284031215610f6157610f60610954565b5b6000610f6f84828501610f36565b91505092915050565b7f7472616e7366657246726f6d206661696c656400000000000000000000000000600082015250565b6000610fae601383610b87565b9150610fb982610f78565b602082019050919050565b60006020820190508181036000830152610fdd81610fa1565b9050919050565b7f7472616e73666572206661696c65640000000000000000000000000000000000600082015250565b600061101a600f83610b87565b915061102582610fe4565b602082019050919050565b600060208201905081810360008301526110498161100d565b905091905056fea2646970667358221220fc8c150a9836565f480bff326474eeff063905c1de1bebe5a6639447b3ff34d764736f6c63430008140033",
  "linkReferences": {},
  "deployedLinkReferences": {}
}