{
  "_format": "hh-sol-artifact-1",
  "contractName": "Mixer",
  "sourceName": "contracts/Mixer.sol",
  "abi": [
    {
      "inputs": [],
      "stateMutability": "nonpayable",
      "type": "constructor"
    },
    {
      "anonymous": false,
      "inputs": [
        {
          "indexed": false,
          "internalType": "address",
          "name": "cm",
          "type": "address"
        }
      ],
      "name": "CollateralManagerSet",
      "type": "event"
    },
    {
      "anonymous": false,
      "inputs": [
        {
          "indexed": true,
          "internalType": "bytes32",
          "name": "commitment",
          "type": "bytes32"
        },
        {
          "indexed": false,
          "internalType": "address",
          "name": "token",
          "type": "address"
        },
        {
          "indexed": false,
          "internalType": "uint256",
          "name": "amount",
          "type": "uint256"
        }
      ],
      "name": "Deposit",
      "type": "event"
    },
    {
      "anonymous": false,
      "inputs": [
        {
          "indexed": true,
          "internalType": "bytes32",
          "name": "commitment",
          "type": "bytes32"
        }
      ],
      "name": "Locked",
      "type": "event"
    },
    {
      "anonymous": false,
      "inputs": [
        {
          "indexed": true,
          "internalType": "bytes32",
          "name": "commitment",
          "type": "bytes32"
        }
      ],
      "name": "Unlocked",
      "type": "event"
    },
    {
      "anonymous": false,
      "inputs": [
        {
          "indexed": true,
          "internalType": "address",
          "name": "to",
          "type": "address"
        },
        {
          "indexed": true,
          "internalType": "bytes32",
          "name": "commitment",
          "type": "bytes32"
        },
        {
          "indexed": false,
          "internalType": "address",
          "name": "token",
          "type": "address"
        },
        {
          "indexed": false,
          "internalType": "uint256",
          "name": "amount",
          "type": "uint256"
        },
        {
          "indexed": false,
          "internalType": "bytes32",
          "name": "nullifierHash",
          "type": "bytes32"
        }
      ],
      "name": "Withdraw",
      "type": "event"
    },
    {
      "inputs": [],
      "name": "collateralManager",
      "outputs": [
        {
          "internalType": "address",
          "name": "",
          "type": "address"
        }
      ],
      "stateMutability": "view",
      "type": "function"
    },
    {
      "inputs": [
        {
          "internalType": "bytes32",
          "name": "commitment",
          "type": "bytes32"
        },
        {
          "internalType": "address",
          "name": "token",
          "type": "address"
        },
        {
          "internalType": "uint256",
          "name": "amount",
          "type": "uint256"
        }
      ],
      "name": "deposit",
      "outputs": [],
      "stateMutability": "nonpayable",
      "type": "function"
    },
    {
      "inputs": [
        {
          "internalType": "bytes32",
          "name": "",
          "type": "bytes32"
        }
      ],
      "name": "deposits",
      "outputs": [
        {
          "internalType": "address",
          "name": "token",
          "type": "address"
        },
        {
          "internalType": "uint256",
          "name": "amount",
          "type": "uint256"
        },
        {
          "internalType": "bool",
          "name": "withdrawn",
          "type": "bool"
        },
        {
          "internalType": "bool",
          "name": "locked",
          "type": "bool"
        }
      ],
      "stateMutability": "view",
      "type": "function"
    },
    {
      "inputs": [
        {
          "internalType": "bytes32",
          "name": "commitment",
          "type": "bytes32"
        }
      ],
      "name": "getDeposit",
      "outputs": [
        {
          "internalType": "address",
          "name": "",
          "type": "address"
        },
        {
          "internalType": "uint256",
          "name": "",
          "type": "uint256"
        },
        {
          "internalType": "bool",
          "name": "",
          "type": "bool"
        },
        {
          "internalType": "bool",
          "name": "",
          "type": "bool"
        }
      ],
      "stateMutability": "view",
      "type": "function"
    },
    {
      "inputs": [
        {
          "internalType": "bytes32",
          "name": "commitment",
          "type": "bytes32"
        }
      ],
      "name": "lock",
      "outputs": [],
      "stateMutability": "nonpayable",
      "type": "function"
    },
    {
      "inputs": [
        {
          "internalType": "bytes32",
          "name": "",
          "type": "bytes32"
        }
      ],
      "name": "nullifierSpent",
      "outputs": [
        {
          "internalType": "bool",
          "name": "",
          "type": "bool"
        }
      ],
      "stateMutability": "view",
      "type": "function"
    },
    {
      "inputs": [
        {
          "internalType": "address",
          "name": "cm",
          "type": "address"
        }
      ],
      "name": "setCollateralManager",
      "outputs": [],
      "stateMutability": "nonpayable",
      "type": "function"
    },
    {
      "inputs": [
        {
          "internalType": "bytes32",
          "name": "commitment",
          "type": "bytes32"
        }
      ],
      "name": "unlock",
      "outputs": [],
      "stateMutability": "nonpayable",
      "type": "function"
    },
    {
      "inputs": [
        {
          "internalType": "address",
          "name": "to",
          "type": "address"
        },
        {
          "internalType": "bytes32",
          "name": "nullifier",
          "type": "bytes32"
        },
        {
          "internalType": "bytes32",
          "name": "secret",
          "type": "bytes32"
        }
      ],
      "name": "withdraw",
      "outputs": [],
      "stateMutability": "nonpayable",
      "type": "function"
    }
  ],
  "bytecode": "0x608060405234801561001057600080fd5b506001600081905550611820806100286000396000f3fe608060405234801561001057600080fd5b50600436106100935760003560e01c80637a86983f116100665780637a86983f14610135578063842a05d414610168578063c71b29bf14610184578063d954863c146101a0578063ec9b5b3a146101bc57610093565b806301670ba91461009857806323be345c146100b457806338c86911146100d25780633d4dff7b14610102575b600080fd5b6100b260048036038101906100ad9190610eae565b6101d8565b005b6100bc61034a565b6040516100c99190610f1c565b60405180910390f35b6100ec60048036038101906100e79190610eae565b610370565b6040516100f99190610f52565b60405180910390f35b61011c60048036038101906101179190610eae565b610390565b60405161012c9493929190610f86565b60405180910390f35b61014f600480360381019061014a9190610eae565b6103fa565b60405161015f9493929190610f86565b60405180910390f35b610182600480360381019061017d9190610ff7565b610475565b005b61019e60048036038101906101999190611024565b6105f0565b005b6101ba60048036038101906101b591906110a3565b610920565b005b6101d660048036038101906101d19190610eae565b610b9a565b005b600360009054906101000a900473ffffffffffffffffffffffffffffffffffffffff1673ffffffffffffffffffffffffffffffffffffffff163373ffffffffffffffffffffffffffffffffffffffff1614610268576040517f08c379a000000000000000000000000000000000000000000000000000000000815260040161025f90611153565b60405180910390fd5b6000600160008381526020019081526020016000209050600081600101541180156102a257508060020160009054906101000a900460ff16155b80156102bd57508060020160019054906101000a900460ff16155b6102fc576040517f08c379a00000000000000000000000000000000000000000000000000000000081526004016102f3906111bf565b60405180910390fd5b60018160020160016101000a81548160ff021916908315150217905550817f3223c64d0518f39e3854050c1ea77cb9f25539e39168510c5a0cc7aad992b30660405160405180910390a25050565b600360009054906101000a900473ffffffffffffffffffffffffffffffffffffffff1681565b60026020528060005260406000206000915054906101000a900460ff1681565b60016020528060005260406000206000915090508060000160009054906101000a900473ffffffffffffffffffffffffffffffffffffffff16908060010154908060020160009054906101000a900460ff16908060020160019054906101000a900460ff16905084565b60008060008060006001600087815260200190815260200160002090508060000160009054906101000a900473ffffffffffffffffffffffffffffffffffffffff1681600101548260020160009054906101000a900460ff168360020160019054906101000a900460ff169450945094509450509193509193565b600073ffffffffffffffffffffffffffffffffffffffff16600360009054906101000a900473ffffffffffffffffffffffffffffffffffffffff1673ffffffffffffffffffffffffffffffffffffffff1614610506576040517f08c379a00000000000000000000000000000000000000000000000000000000081526004016104fd9061122b565b60405180910390fd5b600073ffffffffffffffffffffffffffffffffffffffff168173ffffffffffffffffffffffffffffffffffffffff1603610575576040517f08c379a000000000000000000000000000000000000000000000000000000000815260040161056c90611297565b60405180910390fd5b80600360006101000a81548173ffffffffffffffffffffffffffffffffffffffff021916908373ffffffffffffffffffffffffffffffffffffffff1602179055507f3370510cbff7ce3d801e216bba0f5168df704747803543a6d82f83cd04776f27816040516105e59190610f1c565b60405180910390a150565b600260005403610635576040517f08c379a000000000000000000000000000000000000000000000000000000000815260040161062c90611303565b60405180910390fd5b6002600081905550600073ffffffffffffffffffffffffffffffffffffffff168373ffffffffffffffffffffffffffffffffffffffff16036106ac576040517f08c379a00000000000000000000000000000000000000000000000000000000081526004016106a39061136f565b60405180910390fd5b600082826040516020016106c19291906113b0565b60405160208183030381529060405280519060200120905060006001600083815260200190815260200160002090506000816001015411801561071357508060020160009054906101000a900460ff16155b801561072e57508060020160019054906101000a900460ff16155b61076d576040517f08c379a000000000000000000000000000000000000000000000000000000000815260040161076490611428565b60405180910390fd5b6000846040516020016107809190611448565b6040516020818303038152906040528051906020012090506002600082815260200190815260200160002060009054906101000a900460ff16156107f9576040517f08c379a00000000000000000000000000000000000000000000000000000000081526004016107f0906114af565b60405180910390fd5b60016002600083815260200190815260200160002060006101000a81548160ff02191690831515021790555060018260020160006101000a81548160ff0219169083151502179055506108958683600101548460000160009054906101000a900473ffffffffffffffffffffffffffffffffffffffff1673ffffffffffffffffffffffffffffffffffffffff16610ce09092919063ffffffff16565b828673ffffffffffffffffffffffffffffffffffffffff167f11a1debd42d4029d4bb57984221da687cfe578fc1677684652af3e77ccb3d2ff8460000160009054906101000a900473ffffffffffffffffffffffffffffffffffffffff16856001015485604051610908939291906114de565b60405180910390a35050506001600081905550505050565b600260005403610965576040517f08c379a000000000000000000000000000000000000000000000000000000000815260040161095c90611303565b60405180910390fd5b6002600081905550600073ffffffffffffffffffffffffffffffffffffffff168273ffffffffffffffffffffffffffffffffffffffff16141580156109aa5750600081115b6109e9576040517f08c379a00000000000000000000000000000000000000000000000000000000081526004016109e090611561565b60405180910390fd5b6000600160008581526020019081526020016000206001015414610a42576040517f08c379a0000000000000000000000000000000000000000000000000000000008152600401610a39906115cd565b60405180910390fd5b610a6f3330838573ffffffffffffffffffffffffffffffffffffffff16610da8909392919063ffffffff16565b60405180608001604052808373ffffffffffffffffffffffffffffffffffffffff168152602001828152602001600015158152602001600015158152506001600085815260200190815260200160002060008201518160000160006101000a81548173ffffffffffffffffffffffffffffffffffffffff021916908373ffffffffffffffffffffffffffffffffffffffff1602179055506020820151816001015560408201518160020160006101000a81548160ff02191690831515021790555060608201518160020160016101000a81548160ff021916908315150217905550905050827f182fa52899142d44ff5c45a6354d3b3e868d5b07db6a65580b39bd321bdaf8ac8383604051610b859291906115ed565b60405180910390a26001600081905550505050565b600360009054906101000a900473ffffffffffffffffffffffffffffffffffffffff1673ffffffffffffffffffffffffffffffffffffffff163373ffffffffffffffffffffffffffffffffffffffff1614610c2a576040517f08c379a0000000000000000000000000000000000000000000000000000000008152600401610c2190611153565b60405180910390fd5b60006001600083815260200190815260200160002090508060020160019054906101000a900460ff16610c92576040517f08c379a0000000000000000000000000000000000000000000000000000000008152600401610c8990611662565b60405180910390fd5b60008160020160016101000a81548160ff021916908315150217905550817f248ed1ed5e6e28246432a42651d384fadb929f7cefaacbe6a1764513e058ee7460405160405180910390a25050565b60008373ffffffffffffffffffffffffffffffffffffffff1663a9059cbb84846040518363ffffffff1660e01b8152600401610d1d9291906115ed565b6020604051808303816000875af1158015610d3c573d6000803e3d6000fd5b505050506040513d601f19601f82011682018060405250810190610d6091906116ae565b905080610da2576040517f08c379a0000000000000000000000000000000000000000000000000000000008152600401610d9990611727565b60405180910390fd5b50505050565b60008473ffffffffffffffffffffffffffffffffffffffff166323b872dd8585856040518463ffffffff1660e01b8152600401610de793929190611747565b6020604051808303816000875af1158015610e06573d6000803e3d6000fd5b505050506040513d601f19601f82011682018060405250810190610e2a91906116ae565b905080610e6c576040517f08c379a0000000000000000000000000000000000000000000000000000000008152600401610e63906117ca565b60405180910390fd5b5050505050565b600080fd5b6000819050919050565b610e8b81610e78565b8114610e9657600080fd5b50565b600081359050610ea881610e82565b92915050565b600060208284031215610ec457610ec3610e73565b5b6000610ed284828501610e99565b91505092915050565b600073ffffffffffffffffffffffffffffffffffffffff82169050919050565b6000610f0682610edb565b9050919050565b610f1681610efb565b82525050565b6000602082019050610f316000830184610f0d565b92915050565b60008115159050919050565b610f4c81610f37565b82525050565b6000602082019050610f676000830184610f43565b92915050565b6000819050919050565b610f8081610f6d565b82525050565b6000608082019050610f9b6000830187610f0d565b610fa86020830186610f77565b610fb56040830185610f43565b610fc26060830184610f43565b95945050505050565b610fd481610efb565b8114610fdf57600080fd5b50565b600081359050610ff181610fcb565b92915050565b60006020828403121561100d5761100c610e73565b5b600061101b84828501610fe2565b91505092915050565b60008060006060848603121561103d5761103c610e73565b5b600061104b86828701610fe2565b935050602061105c86828701610e99565b925050604061106d86828701610e99565b9150509250925092565b61108081610f6d565b811461108b57600080fd5b50565b60008135905061109d81611077565b92915050565b6000806000606084860312156110bc576110bb610e73565b5b60006110ca86828701610e99565b93505060206110db86828701610fe2565b92505060406110ec8682870161108e565b9150509250925092565b600082825260208201905092915050565b7f6e6f7420434d0000000000000000000000000000000000000000000000000000600082015250565b600061113d6006836110f6565b915061114882611107565b602082019050919050565b6000602082019050818103600083015261116c81611130565b9050919050565b7f696e76616c696400000000000000000000000000000000000000000000000000600082015250565b60006111a96007836110f6565b91506111b482611173565b602082019050919050565b600060208201905081810360008301526111d88161119c565b9050919050565b7f434d207365740000000000000000000000000000000000000000000000000000600082015250565b60006112156006836110f6565b9150611220826111df565b602082019050919050565b6000602082019050818103600083015261124481611208565b9050919050565b7f636d3d3000000000000000000000000000000000000000000000000000000000600082015250565b60006112816004836110f6565b915061128c8261124b565b602082019050919050565b600060208201905081810360008301526112b081611274565b9050919050565b7f5245454e5452414e435900000000000000000000000000000000000000000000600082015250565b60006112ed600a836110f6565b91506112f8826112b7565b602082019050919050565b6000602082019050818103600083015261131c816112e0565b9050919050565b7f746f3d3000000000000000000000000000000000000000000000000000000000600082015250565b60006113596004836110f6565b915061136482611323565b602082019050919050565b600060208201905081810360008301526113888161134c565b9050919050565b6000819050919050565b6113aa6113a582610e78565b61138f565b82525050565b60006113bc8285611399565b6020820191506113cc8284611399565b6020820191508190509392505050565b7f696e76616c6964206e6f74650000000000000000000000000000000000000000600082015250565b6000611412600c836110f6565b915061141d826113dc565b602082019050919050565b6000602082019050818103600083015261144181611405565b9050919050565b60006114548284611399565b60208201915081905092915050565b7f6e756c6c69666965722075736564000000000000000000000000000000000000600082015250565b6000611499600e836110f6565b91506114a482611463565b602082019050919050565b600060208201905081810360008301526114c88161148c565b9050919050565b6114d881610e78565b82525050565b60006060820190506114f36000830186610f0d565b6115006020830185610f77565b61150d60408301846114cf565b949350505050565b7f6261642061726773000000000000000000000000000000000000000000000000600082015250565b600061154b6008836110f6565b915061155682611515565b602082019050919050565b6000602082019050818103600083015261157a8161153e565b9050919050565b7f636f6d6d69746d656e7420657869737473000000000000000000000000000000600082015250565b60006115b76011836110f6565b91506115c282611581565b602082019050919050565b600060208201905081810360008301526115e6816115aa565b9050919050565b60006040820190506116026000830185610f0d565b61160f6020830184610f77565b9392505050565b7f6e6f74206c6f636b656400000000000000000000000000000000000000000000600082015250565b600061164c600a836110f6565b915061165782611616565b602082019050919050565b6000602082019050818103600083015261167b8161163f565b9050919050565b61168b81610f37565b811461169657600080fd5b50565b6000815190506116a881611682565b92915050565b6000602082840312156116c4576116c3610e73565b5b60006116d284828501611699565b91505092915050565b7f7472616e73666572206661696c65640000000000000000000000000000000000600082015250565b6000611711600f836110f6565b915061171c826116db565b602082019050919050565b6000602082019050818103600083015261174081611704565b9050919050565b600060608201905061175c6000830186610f0d565b6117696020830185610f0d565b6117766040830184610f77565b949350505050565b7f7472616e7366657246726f6d206661696c656400000000000000000000000000600082015250565b60006117b46013836110f6565b91506117bf8261177e565b602082019050919050565b600060208201905081810360008301526117e3816117a7565b905091905056fea264697066735822122001c3934532e30774a056b3827d6e487c22e213c6dded2c949372d15ef012fa5364736f6c63430008140033",
  "linkReferences": {},
  "deployedLinkReferences": {}
}