{
  "_format": "hh-sol-artifact-1",
  "contractName": "CollateralManager",
  "sourceName": "contracts/CollateralManager.sol",
  "abi": [
    {
      "inputs": [
        {
          "internalType": "address",
          "name": "mixerAddress",
          "type": "address"
        },
        {
          "internalType": "address",
          "name": "poolAddress",
          "type": "address"
        }
      ],
      "stateMutability": "nonpayable",
      "type": "constructor"
    },
    {
      "inputs": [
        {
          "internalType": "bytes32",
          "name": "",
          "type": "bytes32"
        }
      ],
      "name": "collaterals",
      "outputs": [
        {
          "internalType": "bytes32",
          "name": "commitment",
          "type": "bytes32"
        },
        {
          "internalType": "bool",
          "name": "locked",
          "type": "bool"
        },
        {
          "internalType": "uint256",
          "name": "loanId",
          "type": "uint256"
        }
      ],
      "stateMutability": "view",
      "type": "function"
    },
    {
      "inputs": [
        {
          "internalType": "bytes32",
          "name": "commitment",
          "type": "bytes32"
        },
        {
          "internalType": "address",
          "name": "borrowToken",
          "type": "address"
        },
        {
          "internalType": "uint256",
          "name": "borrowAmount",
          "type": "uint256"
        }
      ],
      "name": "lockAndBorrow",
      "outputs": [],
      "stateMutability": "nonpayable",
      "type": "function"
    },
    {
      "inputs": [],
      "name": "mixer",
      "outputs": [
        {
          "internalType": "contract Mixer",
          "name": "",
          "type": "address"
        }
      ],
      "stateMutability": "view",
      "type": "function"
    },
    {
      "inputs": [],
      "name": "pool",
      "outputs": [
        {
          "internalType": "contract LendingPool",
          "name": "",
          "type": "address"
        }
      ],
      "stateMutability": "view",
      "type": "function"
    },
    {
      "inputs": [
        {
          "internalType": "bytes32",
          "name": "commitment",
          "type": "bytes32"
        },
        {
          "internalType": "uint256",
          "name": "repayAmount",
          "type": "uint256"
        }
      ],
      "name": "repayAndUnlock",
      "outputs": [],
      "stateMutability": "nonpayable",
      "type": "function"
    }
  ],
  "bytecode": "0x60806040523480156200001157600080fd5b50604051620010d7380380620010d78339818101604052810190620000379190620001d7565b600073ffffffffffffffffffffffffffffffffffffffff168273ffffffffffffffffffffffffffffffffffffffff1614158015620000a25750600073ffffffffffffffffffffffffffffffffffffffff168173ffffffffffffffffffffffffffffffffffffffff1614155b620000e4576040517f08c379a0000000000000000000000000000000000000000000000000000000008152600401620000db906200027f565b60405180910390fd5b816000806101000a81548173ffffffffffffffffffffffffffffffffffffffff021916908373ffffffffffffffffffffffffffffffffffffffff16021790555080600160006101000a81548173ffffffffffffffffffffffffffffffffffffffff021916908373ffffffffffffffffffffffffffffffffffffffff1602179055505050620002a1565b600080fd5b600073ffffffffffffffffffffffffffffffffffffffff82169050919050565b60006200019f8262000172565b9050919050565b620001b18162000192565b8114620001bd57600080fd5b50565b600081519050620001d181620001a6565b92915050565b60008060408385031215620001f157620001f06200016d565b5b60006200020185828601620001c0565b92505060206200021485828601620001c0565b9150509250929050565b600082825260208201905092915050565b7f7a65726f20616464720000000000000000000000000000000000000000000000600082015250565b6000620002676009836200021e565b915062000274826200022f565b602082019050919050565b600060208201905081810360008301526200029a8162000258565b9050919050565b610e2680620002b16000396000f3fe608060405234801561001057600080fd5b50600436106100575760003560e01c806316f0115b1461005c57806383c5cc061461007a578063b8f99cd9146100ac578063cb2427d6146100c8578063f6bed059146100e4575b600080fd5b610064610102565b60405161007191906107d3565b60405180910390f35b610094600480360381019061008f9190610829565b610128565b6040516100a393929190610899565b60405180910390f35b6100c660048036038101906100c191906108fc565b61015f565b005b6100e260048036038101906100dd919061097a565b61040c565b005b6100ec610730565b6040516100f991906109ee565b60405180910390f35b600160009054906101000a900473ffffffffffffffffffffffffffffffffffffffff1681565b60026020528060005260406000206000915090508060000154908060010160009054906101000a900460ff16908060020154905083565b60006002600084815260200190815260200160002090508060010160009054906101000a900460ff168015610198575060008160020154115b6101d7576040517f08c379a00000000000000000000000000000000000000000000000000000000081526004016101ce90610a66565b60405180910390fd5b600160009054906101000a900473ffffffffffffffffffffffffffffffffffffffff1673ffffffffffffffffffffffffffffffffffffffff166343875ae2826002015484336040518463ffffffff1660e01b815260040161023a93929190610a95565b600060405180830381600087803b15801561025457600080fd5b505af1158015610268573d6000803e3d6000fd5b505050506000600160009054906101000a900473ffffffffffffffffffffffffffffffffffffffff1673ffffffffffffffffffffffffffffffffffffffff1663e1ec3c6883600201546040518263ffffffff1660e01b81526004016102cd9190610acc565b60a060405180830381865afa1580156102ea573d6000803e3d6000fd5b505050506040513d601f19601f8201168201806040525081019061030e9190610b3d565b94505050505080610354576040517f08c379a000000000000000000000000000000000000000000000000000000000815260040161034b90610c04565b60405180910390fd5b60008054906101000a900473ffffffffffffffffffffffffffffffffffffffff1673ffffffffffffffffffffffffffffffffffffffff1663ec9b5b3a856040518263ffffffff1660e01b81526004016103ad9190610c24565b600060405180830381600087803b1580156103c757600080fd5b505af11580156103db573d6000803e3d6000fd5b5050505060008260010160006101000a81548160ff0219169083151502179055506000826002018190555050505050565b60008060008060008054906101000a900473ffffffffffffffffffffffffffffffffffffffff1673ffffffffffffffffffffffffffffffffffffffff16637a86983f886040518263ffffffff1660e01b815260040161046b9190610c24565b608060405180830381865afa158015610488573d6000803e3d6000fd5b505050506040513d601f19601f820116820180604052508101906104ac9190610c3f565b93509350935093506000831180156104c2575081155b80156104cc575080155b61050b576040517f08c379a000000000000000000000000000000000000000000000000000000000815260040161050290610cf2565b60405180910390fd5b6002600088815260200190815260200160002060010160009054906101000a900460ff161561056f576040517f08c379a000000000000000000000000000000000000000000000000000000000815260040161056690610d5e565b60405180910390fd5b60008054906101000a900473ffffffffffffffffffffffffffffffffffffffff1673ffffffffffffffffffffffffffffffffffffffff166301670ba9886040518263ffffffff1660e01b81526004016105c89190610c24565b600060405180830381600087803b1580156105e257600080fd5b505af11580156105f6573d6000803e3d6000fd5b5050505060405180606001604052808881526020016001151581526020016000815250600260008981526020019081526020016000206000820151816000015560208201518160010160006101000a81548160ff021916908315150217905550604082015181600201559050506000600160009054906101000a900473ffffffffffffffffffffffffffffffffffffffff1673ffffffffffffffffffffffffffffffffffffffff1663a31da3df338989886040518563ffffffff1660e01b81526004016106c69493929190610d7e565b6020604051808303816000875af11580156106e5573d6000803e3d6000fd5b505050506040513d601f19601f820116820180604052508101906107099190610dc3565b905080600260008a8152602001908152602001600020600201819055505050505050505050565b60008054906101000a900473ffffffffffffffffffffffffffffffffffffffff1681565b600073ffffffffffffffffffffffffffffffffffffffff82169050919050565b6000819050919050565b600061079961079461078f84610754565b610774565b610754565b9050919050565b60006107ab8261077e565b9050919050565b60006107bd826107a0565b9050919050565b6107cd816107b2565b82525050565b60006020820190506107e860008301846107c4565b92915050565b600080fd5b6000819050919050565b610806816107f3565b811461081157600080fd5b50565b600081359050610823816107fd565b92915050565b60006020828403121561083f5761083e6107ee565b5b600061084d84828501610814565b91505092915050565b61085f816107f3565b82525050565b60008115159050919050565b61087a81610865565b82525050565b6000819050919050565b61089381610880565b82525050565b60006060820190506108ae6000830186610856565b6108bb6020830185610871565b6108c8604083018461088a565b949350505050565b6108d981610880565b81146108e457600080fd5b50565b6000813590506108f6816108d0565b92915050565b60008060408385031215610913576109126107ee565b5b600061092185828601610814565b9250506020610932858286016108e7565b9150509250929050565b600061094782610754565b9050919050565b6109578161093c565b811461096257600080fd5b50565b6000813590506109748161094e565b92915050565b600080600060608486031215610993576109926107ee565b5b60006109a186828701610814565b93505060206109b286828701610965565b92505060406109c3868287016108e7565b9150509250925092565b60006109d8826107a0565b9050919050565b6109e8816109cd565b82525050565b6000602082019050610a0360008301846109df565b92915050565b600082825260208201905092915050565b7f6e6f74206c6f636b65642f6c6f616e0000000000000000000000000000000000600082015250565b6000610a50600f83610a09565b9150610a5b82610a1a565b602082019050919050565b60006020820190508181036000830152610a7f81610a43565b9050919050565b610a8f8161093c565b82525050565b6000606082019050610aaa600083018661088a565b610ab7602083018561088a565b610ac46040830184610a86565b949350505050565b6000602082019050610ae1600083018461088a565b92915050565b600081519050610af68161094e565b92915050565b600081519050610b0b816108d0565b92915050565b610b1a81610865565b8114610b2557600080fd5b50565b600081519050610b3781610b11565b92915050565b600080600080600060a08688031215610b5957610b586107ee565b5b6000610b6788828901610ae7565b9550506020610b7888828901610ae7565b9450506040610b8988828901610afc565b9350506060610b9a88828901610afc565b9250506080610bab88828901610b28565b9150509295509295909350565b7f6e6f742072657061696400000000000000000000000000000000000000000000600082015250565b6000610bee600a83610a09565b9150610bf982610bb8565b602082019050919050565b60006020820190508181036000830152610c1d81610be1565b9050919050565b6000602082019050610c396000830184610856565b92915050565b60008060008060808587031215610c5957610c586107ee565b5b6000610c6787828801610ae7565b9450506020610c7887828801610afc565b9350506040610c8987828801610b28565b9250506060610c9a87828801610b28565b91505092959194509250565b7f696e76616c6964206e6f74650000000000000000000000000000000000000000600082015250565b6000610cdc600c83610a09565b9150610ce782610ca6565b602082019050919050565b60006020820190508181036000830152610d0b81610ccf565b9050919050565b7f616c7265616479206c6f636b6564000000000000000000000000000000000000600082015250565b6000610d48600e83610a09565b9150610d5382610d12565b602082019050919050565b60006020820190508181036000830152610d7781610d3b565b9050919050565b6000608082019050610d936000830187610a86565b610da06020830186610a86565b610dad604083018561088a565b610dba606083018461088a565b95945050505050565b600060208284031215610dd957610dd86107ee565b5b6000610de784828501610afc565b9150509291505056fea2646970667358221220ea910aeba663048687595b868584a81be3107ecfcf50f7f7f01cc5618949c90e64736f6c63430008140033",
  "linkReferences": {},
  "deployedLinkReferences": {}
}