{
  "_format": "hh-sol-artifact-1",
  "contractName": "GasProfiler",
  "sourceName": "Contracts/GasProfiler.sol",
  "abi": [
    {
      "inputs": [],
      "stateMutability": "nonpayable",
      "type": "constructor"
    },
    {
      "inputs": [],
      "name": "mixer",
      "outputs": [
        {
          "internalType": "contract Mixer",
          "name": "",
          "type": "address"
        }
      ],
      "stateMutability": "view",
      "type": "function"
    },
    {
      "inputs": [],
      "name": "profileStorageWrites",
      "outputs": [
        {
          "internalType": "uint256",
          "name": "nullifierWriteCost",
          "type": "uint256"
        },
        {
          "internalType": "uint256",
          "name": "withdrawnWriteCost",
          "type": "uint256"
        }
      ],
      "stateMutability": "view",
      "type": "function"
    },
    {
      "inputs": [
        {
          "internalType": "address",
          "name": "to",
          "type": "address"
        },
        {
          "internalType": "bytes32",
          "name": "nullifier",
          "type": "bytes32"
        },
        {
          "internalType": "bytes32",
          "name": "secret",
          "type": "bytes32"
        },
        {
          "internalType": "address",
          "name": "token",
          "type": "address"
        },
        {
          "internalType": "uint256",
          "name": "amount",
          "type": "uint256"
        }
      ],
      "name": "profileWithdraw",
      "outputs": [
        {
          "internalType": "uint256",
          "name": "gasUsed",
          "type": "uint256"
        }
      ],
      "stateMutability": "nonpayable",
      "type": "function"
    }
  ],
  "bytecode": "0x608060405234801561001057600080fd5b5060405161001d9061005f565b604051809103906000f080158015610039573d6000803e3d6000fd5b50600080546001600160a01b0319166001600160a01b039290921691909117905561006c565b610e9b806103a283390190565b6103278061007b6000396000f3fe608060405234801561001057600080fd5b50600436106100415760003560e01c80630f33ec4d146100465780632b48f6431461006c578063f6bed05914610083575b600080fd5b61005961005436600461027c565b6100ae565b6040519081526020015b60405180910390f35b60408051614e208152611388602082015201610063565b600054610096906001600160a01b031681565b6040516001600160a01b039091168152602001610063565b60008085856040516020016100cd929190918252602082015260400190565b60408051601f19818403018152919052805160209091012090506001600160a01b03841661016957600054604051633655218f60e21b8152600481018390526001600160a01b038681166024830152604482018690529091169063d954863c9085906064016000604051808303818588803b15801561014b57600080fd5b505af115801561015f573d6000803e3d6000fd5b50505050506101d7565b600054604051633655218f60e21b8152600481018390526001600160a01b038681166024830152604482018690529091169063d954863c90606401600060405180830381600087803b1580156101be57600080fd5b505af11580156101d2573d6000803e3d6000fd5b505050505b60005a60005460405163c71b29bf60e01b81526001600160a01b038b81166004830152602482018b9052604482018a905292935091169063c71b29bf90606401600060405180830381600087803b15801561023157600080fd5b505af1158015610245573d6000803e3d6000fd5b505050505a61025490826102ca565b98975050505050505050565b80356001600160a01b038116811461027757600080fd5b919050565b600080600080600060a0868803121561029457600080fd5b61029d86610260565b945060208601359350604086013592506102b960608701610260565b949793965091946080013592915050565b818103818111156102eb57634e487b7160e01b600052601160045260246000fd5b9291505056fea2646970667358221220e8ed8c64f8a5210457b0a381599e7f1dd1020aaeb01167e6b9c39b52512df70564736f6c63430008110033608060405234801561001057600080fd5b506001600055610e76806100256000396000f3fe6080604052600436106100865760003560e01c80637a86983f116100595780637a86983f146101af578063842a05d414610205578063c71b29bf14610225578063d954863c14610245578063ec9b5b3a1461025857600080fd5b806301670ba91461008b57806323be345c146100ad57806338c86911146100ea5780633d4dff7b1461012a575b600080fd5b34801561009757600080fd5b506100ab6100a6366004610d30565b610278565b005b3480156100b957600080fd5b506003546100cd906001600160a01b031681565b6040516001600160a01b0390911681526020015b60405180910390f35b3480156100f657600080fd5b5061011a610105366004610d30565b60026020526000908152604090205460ff1681565b60405190151581526020016100e1565b34801561013657600080fd5b5061017d610145366004610d30565b60016020819052600091825260409091208054918101546002909101546001600160a01b039092169160ff8082169161010090041684565b604080516001600160a01b039095168552602085019390935290151591830191909152151560608201526080016100e1565b3480156101bb57600080fd5b5061017d6101ca366004610d30565b60009081526001602081905260409091208054918101546002909101546001600160a01b0390921692909160ff808216926101009092041690565b34801561021157600080fd5b506100ab610220366004610d65565b610374565b34801561023157600080fd5b506100ab610240366004610d87565b610449565b6100ab610253366004610dba565b610748565b34801561026457600080fd5b506100ab610273366004610d30565b610a26565b6003546001600160a01b031633146102c05760405162461bcd60e51b81526020600482015260066024820152656e6f7420434d60d01b60448201526064015b60405180910390fd5b600081815260016020819052604090912090810154158015906102e85750600281015460ff16155b80156102fe57506002810154610100900460ff16155b6103345760405162461bcd60e51b81526020600482015260076024820152661a5b9d985b1a5960ca1b60448201526064016102b7565b60028101805461ff00191661010017905560405182907f3223c64d0518f39e3854050c1ea77cb9f25539e39168510c5a0cc7aad992b30690600090a25050565b6003546001600160a01b0316156103b65760405162461bcd60e51b815260206004820152600660248201526510d3481cd95d60d21b60448201526064016102b7565b6001600160a01b0381166103f55760405162461bcd60e51b81526004016102b7906020808252600490820152630636d3d360e41b604082015260600190565b600380546001600160a01b0319166001600160a01b0383169081179091556040519081527f3370510cbff7ce3d801e216bba0f5168df704747803543a6d82f83cd04776f279060200160405180910390a150565b6000546002036104885760405162461bcd60e51b815260206004820152600a6024820152695245454e5452414e435960b01b60448201526064016102b7565b60026000556001600160a01b0383166104cc5760405162461bcd60e51b81526004016102b7906020808252600490820152630746f3d360e41b604082015260600190565b60408051602080820185905281830184905282518083038401815260609092018352815191810191909120600081815260019283905292909220908101541580159061051d5750600281015460ff16155b801561053357506002810154610100900460ff16155b61056e5760405162461bcd60e51b815260206004820152600c60248201526b696e76616c6964206e6f746560a01b60448201526064016102b7565b60008460405160200161058391815260200190565b60408051601f1981840301815291815281516020928301206000818152600290935291205490915060ff16156105ec5760405162461bcd60e51b815260206004820152600e60248201526d1b9d5b1b1a599a595c881d5cd95960921b60448201526064016102b7565b60008181526002602081905260409091208054600160ff199182168117909255918401805490921617905581546001600160a01b03166106c65760018201546040516000916001600160a01b038916918381818185875af1925050503d8060008114610674576040519150601f19603f3d011682016040523d82523d6000602084013e610679565b606091505b50509050806106c05760405162461bcd60e51b8152602060048201526013602482015272115512081d1c985b9cd9995c8819985a5b1959606a1b60448201526064016102b7565b506106e4565b600182015482546106e4916001600160a01b03909116908890610af9565b81546001830154604080516001600160a01b0393841681526020810192909252810183905284918816907f11a1debd42d4029d4bb57984221da687cfe578fc1677684652af3e77ccb3d2ff9060600160405180910390a35050600160005550505050565b6000546002036107875760405162461bcd60e51b815260206004820152600a6024820152695245454e5452414e435960b01b60448201526064016102b7565b6002600055806107c65760405162461bcd60e51b815260206004820152600a60248201526918985908185b5bdd5b9d60b21b60448201526064016102b7565b600083815260016020819052604090912001541561081a5760405162461bcd60e51b8152602060048201526011602482015270636f6d6d69746d656e742065786973747360781b60448201526064016102b7565b6001600160a01b0382166108f35780341461086d5760405162461bcd60e51b815260206004820152601360248201527208aa89040c2dadeeadce840dad2e6dac2e8c6d606b1b60448201526064016102b7565b604080516080810182526001600160a01b03808516825260208083018581526000848601818152606086018281528a8352600194859052969091209451855494166001600160a01b031990941693909317845551908301555160029091018054925115156101000261ff00199215159290921661ffff19909316929092171790556109d8565b34156109415760405162461bcd60e51b815260206004820152601860248201527f6e6f2045544820666f7220746f6b656e206465706f736974000000000000000060448201526064016102b7565b6109566001600160a01b038316333084610c0c565b604080516080810182526001600160a01b03808516825260208083018581526000848601818152606086018281528a8352600194859052969091209451855494166001600160a01b031990941693909317845551908301555160029091018054925115156101000261ff00199215159290921661ffff19909316929092171790555b604080516001600160a01b03841681526020810183905284917f182fa52899142d44ff5c45a6354d3b3e868d5b07db6a65580b39bd321bdaf8ac910160405180910390a25050600160005550565b6003546001600160a01b03163314610a695760405162461bcd60e51b81526020600482015260066024820152656e6f7420434d60d01b60448201526064016102b7565b60008181526001602052604090206002810154610100900460ff16610abd5760405162461bcd60e51b815260206004820152600a6024820152691b9bdd081b1bd8dad95960b21b60448201526064016102b7565b60028101805461ff001916905560405182907f248ed1ed5e6e28246432a42651d384fadb929f7cefaacbe6a1764513e058ee7490600090a25050565b604080516001600160a01b038481166024830152604480830185905283518084039091018152606490920183526020820180516001600160e01b031663a9059cbb60e01b1790529151600092839290871691610b559190610def565b6000604051808303816000865af19150503d8060008114610b92576040519150601f19603f3d011682016040523d82523d6000602084013e610b97565b606091505b5091509150818015610bc1575080511580610bc1575080806020019051810190610bc19190610e1e565b610c055760405162461bcd60e51b815260206004820152601560248201527414d051914c8c0e881d1c985b9cd9995c8819985a5b605a1b60448201526064016102b7565b5050505050565b604080516001600160a01b0385811660248301528481166044830152606480830185905283518084039091018152608490920183526020820180516001600160e01b03166323b872dd60e01b1790529151600092839290881691610c709190610def565b6000604051808303816000865af19150503d8060008114610cad576040519150601f19603f3d011682016040523d82523d6000602084013e610cb2565b606091505b5091509150818015610cdc575080511580610cdc575080806020019051810190610cdc9190610e1e565b610d285760405162461bcd60e51b815260206004820152601960248201527f5341464532303a207472616e7366657246726f6d206661696c0000000000000060448201526064016102b7565b505050505050565b600060208284031215610d4257600080fd5b5035919050565b80356001600160a01b0381168114610d6057600080fd5b919050565b600060208284031215610d7757600080fd5b610d8082610d49565b9392505050565b600080600060608486031215610d9c57600080fd5b610da584610d49565b95602085013595506040909401359392505050565b600080600060608486031215610dcf57600080fd5b83359250610ddf60208501610d49565b9150604084013590509250925092565b6000825160005b81811015610e105760208186018101518583015201610df6565b506000920191825250919050565b600060208284031215610e3057600080fd5b81518015158114610d8057600080fdfea2646970667358221220fa6a9ed988db313ac078ad44437962d7768465a93790e8d46cca1b3b5d2667b264736f6c63430008110033",
  "linkReferences": {},
  "deployedLinkReferences": {}
}