{
  "_format": "hh-sol-artifact-1",
  "contractName": "LendingPool",
  "sourceName": "Contracts/LendingPool.sol",
  "abi": [
    {
      "anonymous": false,
      "inputs": [
        {
          "indexed": true,
          "internalType": "uint256",
          "name": "loanId",
          "type": "uint256"
        },
        {
          "indexed": true,
          "internalType": "address",
          "name": "borrower",
          "type": "address"
        },
        {
          "indexed": false,
          "internalType": "address",
          "name": "token",
          "type": "address"
        },
        {
          "indexed": false,
          "internalType": "uint256",
          "name": "amount",
          "type": "uint256"
        },
        {
          "indexed": false,
          "internalType": "uint256",
          "name": "collateralAmount",
          "type": "uint256"
        }
      ],
      "name": "Borrow",
      "type": "event"
    },
    {
      "anonymous": false,
      "inputs": [
        {
          "indexed": true,
          "internalType": "address",
          "name": "from",
          "type": "address"
        },
        {
          "indexed": false,
          "internalType": "address",
          "name": "token",
          "type": "address"
        },
        {
          "indexed": false,
          "internalType": "uint256",
          "name": "amount",
          "type": "uint256"
        }
      ],
      "name": "Fund",
      "type": "event"
    },
    {
      "anonymous": false,
      "inputs": [
        {
          "indexed": true,
          "internalType": "uint256",
          "name": "loanId",
          "type": "uint256"
        },
        {
          "indexed": true,
          "internalType": "address",
          "name": "payer",
          "type": "address"
        },
        {
          "indexed": false,
          "internalType": "uint256",
          "name": "amount",
          "type": "uint256"
        }
      ],
      "name": "Repay",
      "type": "event"
    },
    {
      "inputs": [
        {
          "internalType": "address",
          "name": "borrower",
          "type": "address"
        },
        {
          "internalType": "address",
          "name": "token",
          "type": "address"
        },
        {
          "internalType": "uint256",
          "name": "amount",
          "type": "uint256"
        },
        {
          "internalType": "uint256",
          "name": "collateralAmount",
          "type": "uint256"
        }
      ],
      "name": "borrowFor",
      "outputs": [
        {
          "internalType": "uint256",
          "name": "",
          "type": "uint256"
        }
      ],
      "stateMutability": "nonpayable",
      "type": "function"
    },
    {
      "inputs": [
        {
          "internalType": "address",
          "name": "token",
          "type": "address"
        },
        {
          "internalType": "uint256",
          "name": "amount",
          "type": "uint256"
        }
      ],
      "name": "fund",
      "outputs": [],
      "stateMutability": "nonpayable",
      "type": "function"
    },
    {
      "inputs": [],
      "name": "loanCounter",
      "outputs": [
        {
          "internalType": "uint256",
          "name": "",
          "type": "uint256"
        }
      ],
      "stateMutability": "view",
      "type": "function"
    },
    {
      "inputs": [
        {
          "internalType": "uint256",
          "name": "",
          "type": "uint256"
        }
      ],
      "name": "loans",
      "outputs": [
        {
          "internalType": "address",
          "name": "borrower",
          "type": "address"
        },
        {
          "internalType": "address",
          "name": "token",
          "type": "address"
        },
        {
          "internalType": "uint256",
          "name": "amount",
          "type": "uint256"
        },
        {
          "internalType": "uint256",
          "name": "collateralAmount",
          "type": "uint256"
        },
        {
          "internalType": "bool",
          "name": "repaid",
          "type": "bool"
        }
      ],
      "stateMutability": "view",
      "type": "function"
    },
    {
      "inputs": [
        {
          "internalType": "uint256",
          "name": "loanId",
          "type": "uint256"
        },
        {
          "internalType": "uint256",
          "name": "amount",
          "type": "uint256"
        },
        {
          "internalType": "address",
          "name": "payer",
          "type": "address"
        }
      ],
      "name": "repayFrom",
      "outputs": [],
      "stateMutability": "nonpayable",
      "type": "function"
    }
  ],
  "bytecode": "0x608060405234801561001057600080fd5b506108f6806100206000396000f3fe608060405234801561001057600080fd5b50600436106100575760003560e01c806334d9289e1461005c57806343875ae2146100785780637b1837de1461008d578063a31da3df146100a0578063e1ec3c68146100b3575b600080fd5b61006560005481565b6040519081526020015b60405180910390f35b61008b61008636600461076e565b610135565b005b61008b61009b3660046107a3565b610250565b6100656100ae3660046107cd565b6102fc565b6101006100c136600461080f565b6001602081905260009182526040909120805491810154600282015460038301546004909301546001600160a01b039485169490921692909160ff1685565b604080516001600160a01b0396871681529590941660208601529284019190915260608301521515608082015260a00161006f565b6000838152600160205260409020600481015460ff16156101865760405162461bcd60e51b81526020600482015260066024820152651c995c185a5960d21b60448201526064015b60405180910390fd5b6001600160a01b038216158015906101a2575080600201548310155b6101da5760405162461bcd60e51b815260206004820152600960248201526862616420726570617960b81b604482015260640161017d565b60018101546101f4906001600160a01b031683308661051b565b60048101805460ff191660011790556040516001600160a01b0383169085907fc030da26557a891f33dbaee473c007cdfa269acb9628d7d12e744ec6923ed2b3906102429087815260200190565b60405180910390a350505050565b6001600160a01b038216158015906102685750600081115b61029f5760405162461bcd60e51b815260206004820152600860248201526718985908199d5b9960c21b604482015260640161017d565b6102b46001600160a01b03831633308461051b565b604080516001600160a01b03841681526020810183905233917f2d48ac6acd9c250f93c75e6a8dd61f6f1c062b7f83c1f604cf41a3352df683fc910160405180910390a25050565b60006001600160a01b0385161580159061031e57506001600160a01b03841615155b801561032a5750600083115b6103615760405162461bcd60e51b8152602060048201526008602482015267626164206172677360c01b604482015260640161017d565b6040516370a0823160e01b815230600482015283906001600160a01b038616906370a0823190602401602060405180830381865afa1580156103a7573d6000803e3d6000fd5b505050506040513d601f19601f820116820180604052508101906103cb9190610828565b10156104085760405162461bcd60e51b815260206004820152600c60248201526b6e6f206c697175696469747960a01b604482015260640161017d565b60008054908061041783610841565b90915550506040805160a0810182526001600160a01b03878116825286811660208084018281528486018981526060860189815260006080880181815281548252600195869052989020965187546001600160a01b031990811691881691909117885592519387018054909316939095169290921790555160028401559051600383015591516004909101805460ff19169115159190911790556104bc90868561063f565b600054604080516001600160a01b0387811682526020820187905291810185905290871691907fef18174796a5d2f91d51dc5e907a4d7867bbd6e800f6225168e0453d581d0dcd9060600160405180910390a350600054949350505050565b604080516001600160a01b0385811660248301528481166044830152606480830185905283518084039091018152608490920183526020820180516001600160e01b03166323b872dd60e01b179052915160009283929088169161057f9190610868565b6000604051808303816000865af19150503d80600081146105bc576040519150601f19603f3d011682016040523d82523d6000602084013e6105c1565b606091505b50915091508180156105eb5750805115806105eb5750808060200190518101906105eb9190610897565b6106375760405162461bcd60e51b815260206004820152601960248201527f5341464532303a207472616e7366657246726f6d206661696c00000000000000604482015260640161017d565b505050505050565b604080516001600160a01b038481166024830152604480830185905283518084039091018152606490920183526020820180516001600160e01b031663a9059cbb60e01b179052915160009283929087169161069b9190610868565b6000604051808303816000865af19150503d80600081146106d8576040519150601f19603f3d011682016040523d82523d6000602084013e6106dd565b606091505b50915091508180156107075750805115806107075750808060200190518101906107079190610897565b61074b5760405162461bcd60e51b815260206004820152601560248201527414d051914c8c0e881d1c985b9cd9995c8819985a5b605a1b604482015260640161017d565b5050505050565b80356001600160a01b038116811461076957600080fd5b919050565b60008060006060848603121561078357600080fd5b833592506020840135915061079a60408501610752565b90509250925092565b600080604083850312156107b657600080fd5b6107bf83610752565b946020939093013593505050565b600080600080608085870312156107e357600080fd5b6107ec85610752565b93506107fa60208601610752565b93969395505050506040820135916060013590565b60006020828403121561082157600080fd5b5035919050565b60006020828403121561083a57600080fd5b5051919050565b60006001820161086157634e487b7160e01b600052601160045260246000fd5b5060010190565b6000825160005b81811015610889576020818601810151858301520161086f565b506000920191825250919050565b6000602082840312156108a957600080fd5b815180151581146108b957600080fd5b939250505056fea2646970667358221220ccfcd3e3e466f8c0d989f3278753c877c4210a28399c919543e5cabc4d59c3d664736f6c63430008110033",
  "linkReferences": {},
  "deployedLinkReferences": {}
}