{"contracts/LendingPool.sol":{"LendingPool":{"abi":[{"anonymous":false,"inputs":[{"indexed":true,"internalType":"uint256","name":"loanId","type":"uint256"},{"indexed":true,"internalType":"address","name":"borrower","type":"address"},{"indexed":false,"internalType":"address","name":"token","type":"address"},{"indexed":false,"internalType":"uint256","name":"amount","type":"uint256"},{"indexed":false,"internalType":"uint256","name":"collateralAmount","type":"uint256"}],"name":"Borrow","type":"event"},{"anonymous":false,"inputs":[{"indexed":true,"internalType":"address","name":"from","type":"address"},{"indexed":false,"internalType":"address","name":"token","type":"address"},{"indexed":false,"internalType":"uint256","name":"amount","type":"uint256"}],"name":"Fund","type":"event"},{"anonymous":false,"inputs":[{"indexed":true,"internalType":"uint256","name":"loanId","type":"uint256"},{"indexed":true,"internalType":"address","name":"payer","type":"address"},{"indexed":false,"internalType":"uint256","name":"amount","type":"uint256"}],"name":"Repay","type":"event"},{"inputs":[{"internalType":"address","name":"borrower","type":"address"},{"internalType":"address","name":"token","type":"address"},{"internalType":"uint256","name":"amount","type":"uint256"},{"internalType":"uint256","name":"collateralAmount","type":"uint256"}],"name":"borrowFor","outputs":[{"internalType":"uint256","name":"","type":"uint256"}],"stateMutability":"nonpayable","type":"function"},{"inputs":[{"internalType":"address","name":"token","type":"address"},{"internalType":"uint256","name":"amount","type":"uint256"}],"name":"fund","outputs":[],"stateMutability":"nonpayable","type":"function"},{"inputs":[],"name":"loanCounter","outputs":[{"internalType":"uint256","name":"","type":"uint256"}],"stateMutability":"view","type":"function"},{"inputs":[{"internalType":"uint256","name":"","type":"uint256"}],"name":"loans","outputs":[{"internalType":"address","name":"borrower","type":"address"},{"internalType":"address","name":"token","type":"address"},{"internalType":"uint256","name":"amount","type":"uint256"},{"internalType":"uint256","name":"collateralAmount","type":"uint256"},{"internalType":"bool","name":"repaid","type":"bool"}],"stateMutability":"view","type":"function"},{"inputs":[{"internalType":"uint256","name":"loanId","type":"uint256"},{"internalType":"uint256","name":"amount","type":"uint256"},{"internalType":"address","name":"payer","type":"address"}],"name":"repayFrom","outputs":[],"stateMutability":"nonpayable","type":"function"}],"evm":{"bytecode":{"linkReferences":{},"object":"608060405234801561001057600080fd5b50611086806100206000396000f3fe608060405234801561001057600080fd5b50600436106100575760003560e01c806334d9289e1461005c57806343875ae21461007a5780637b1837de14610096578063a31da3df146100b2578063e1ec3c68146100e2575b600080fd5b610064610116565b6040516100719190610939565b60405180910390f35b610094600480360381019061008f91906109e3565b61011c565b005b6100b060048036038101906100ab9190610a36565b6102c8565b005b6100cc60048036038101906100c79190610a76565b6103c5565b6040516100d99190610939565b60405180910390f35b6100fc60048036038101906100f79190610add565b61070a565b60405161010d959493929190610b34565b60405180910390f35b60005481565b60006001600085815260200190815260200160002090508060040160009054906101000a900460ff1615610185576040517f08c379a000000000000000000000000000000000000000000000000000000000815260040161017c90610be4565b60405180910390fd5b600073ffffffffffffffffffffffffffffffffffffffff168273ffffffffffffffffffffffffffffffffffffffff16141580156101c6575080600201548310155b610205576040517f08c379a00000000000000000000000000000000000000000000000000000000081526004016101fc90610c50565b60405180910390fd5b6102568230858460010160009054906101000a900473ffffffffffffffffffffffffffffffffffffffff1673ffffffffffffffffffffffffffffffffffffffff1661078d909392919063ffffffff16565b60018160040160006101000a81548160ff0219169083151502179055508173ffffffffffffffffffffffffffffffffffffffff16847fc030da26557a891f33dbaee473c007cdfa269acb9628d7d12e744ec6923ed2b3856040516102ba9190610939565b60405180910390a350505050565b600073ffffffffffffffffffffffffffffffffffffffff168273ffffffffffffffffffffffffffffffffffffffff16141580156103055750600081115b610344576040517f08c379a000000000000000000000000000000000000000000000000000000000815260040161033b90610cbc565b60405180910390fd5b6103713330838573ffffffffffffffffffffffffffffffffffffffff1661078d909392919063ffffffff16565b3373ffffffffffffffffffffffffffffffffffffffff167f2d48ac6acd9c250f93c75e6a8dd61f6f1c062b7f83c1f604cf41a3352df683fc83836040516103b9929190610cdc565b60405180910390a25050565b60008073ffffffffffffffffffffffffffffffffffffffff168573ffffffffffffffffffffffffffffffffffffffff16141580156104305750600073ffffffffffffffffffffffffffffffffffffffff168473ffffffffffffffffffffffffffffffffffffffff1614155b801561043c5750600083115b61047b576040517f08c379a000000000000000000000000000000000000000000000000000000000815260040161047290610d51565b60405180910390fd5b828473ffffffffffffffffffffffffffffffffffffffff166370a08231306040518263ffffffff1660e01b81526004016104b59190610d71565b602060405180830381865afa1580156104d2573d6000803e3d6000fd5b505050506040513d601f19601f820116820180604052508101906104f69190610da1565b1015610537576040517f08c379a000000000000000000000000000000000000000000000000000000000815260040161052e90610e1a565b60405180910390fd5b60008081548092919061054990610e69565b91905055506040518060a001604052808673ffffffffffffffffffffffffffffffffffffffff1681526020018573ffffffffffffffffffffffffffffffffffffffff16815260200184815260200183815260200160001515815250600160008054815260200190815260200160002060008201518160000160006101000a81548173ffffffffffffffffffffffffffffffffffffffff021916908373ffffffffffffffffffffffffffffffffffffffff16021790555060208201518160010160006101000a81548173ffffffffffffffffffffffffffffffffffffffff021916908373ffffffffffffffffffffffffffffffffffffffff160217905550604082015181600201556060820151816003015560808201518160040160006101000a81548160ff0219169083151502179055509050506106a885848673ffffffffffffffffffffffffffffffffffffffff166108589092919063ffffffff16565b8473ffffffffffffffffffffffffffffffffffffffff166000547fef18174796a5d2f91d51dc5e907a4d7867bbd6e800f6225168e0453d581d0dcd8686866040516106f593929190610eb1565b60405180910390a36000549050949350505050565b60016020528060005260406000206000915090508060000160009054906101000a900473ffffffffffffffffffffffffffffffffffffffff16908060010160009054906101000a900473ffffffffffffffffffffffffffffffffffffffff16908060020154908060030154908060040160009054906101000a900460ff16905085565b60008473ffffffffffffffffffffffffffffffffffffffff166323b872dd8585856040518463ffffffff1660e01b81526004016107cc93929190610ee8565b6020604051808303816000875af11580156107eb573d6000803e3d6000fd5b505050506040513d601f19601f8201168201806040525081019061080f9190610f4b565b905080610851576040517f08c379a000000000000000000000000000000000000000000000000000000000815260040161084890610fc4565b60405180910390fd5b5050505050565b60008373ffffffffffffffffffffffffffffffffffffffff1663a9059cbb84846040518363ffffffff1660e01b8152600401610895929190610cdc565b6020604051808303816000875af11580156108b4573d6000803e3d6000fd5b505050506040513d601f19601f820116820180604052508101906108d89190610f4b565b90508061091a576040517f08c379a000000000000000000000000000000000000000000000000000000000815260040161091190611030565b60405180910390fd5b50505050565b6000819050919050565b61093381610920565b82525050565b600060208201905061094e600083018461092a565b92915050565b600080fd5b61096281610920565b811461096d57600080fd5b50565b60008135905061097f81610959565b92915050565b600073ffffffffffffffffffffffffffffffffffffffff82169050919050565b60006109b082610985565b9050919050565b6109c0816109a5565b81146109cb57600080fd5b50565b6000813590506109dd816109b7565b92915050565b6000806000606084860312156109fc576109fb610954565b5b6000610a0a86828701610970565b9350506020610a1b86828701610970565b9250506040610a2c868287016109ce565b9150509250925092565b60008060408385031215610a4d57610a4c610954565b5b6000610a5b858286016109ce565b9250506020610a6c85828601610970565b9150509250929050565b60008060008060808587031215610a9057610a8f610954565b5b6000610a9e878288016109ce565b9450506020610aaf878288016109ce565b9350506040610ac087828801610970565b9250506060610ad187828801610970565b91505092959194509250565b600060208284031215610af357610af2610954565b5b6000610b0184828501610970565b91505092915050565b610b13816109a5565b82525050565b60008115159050919050565b610b2e81610b19565b82525050565b600060a082019050610b496000830188610b0a565b610b566020830187610b0a565b610b63604083018661092a565b610b70606083018561092a565b610b7d6080830184610b25565b9695505050505050565b600082825260208201905092915050565b7f7265706169640000000000000000000000000000000000000000000000000000600082015250565b6000610bce600683610b87565b9150610bd982610b98565b602082019050919050565b60006020820190508181036000830152610bfd81610bc1565b9050919050565b7f6261642072657061790000000000000000000000000000000000000000000000600082015250565b6000610c3a600983610b87565b9150610c4582610c04565b602082019050919050565b60006020820190508181036000830152610c6981610c2d565b9050919050565b7f6261642066756e64000000000000000000000000000000000000000000000000600082015250565b6000610ca6600883610b87565b9150610cb182610c70565b602082019050919050565b60006020820190508181036000830152610cd581610c99565b9050919050565b6000604082019050610cf16000830185610b0a565b610cfe602083018461092a565b9392505050565b7f6261642061726773000000000000000000000000000000000000000000000000600082015250565b6000610d3b600883610b87565b9150610d4682610d05565b602082019050919050565b60006020820190508181036000830152610d6a81610d2e565b9050919050565b6000602082019050610d866000830184610b0a565b92915050565b600081519050610d9b81610959565b92915050565b600060208284031215610db757610db6610954565b5b6000610dc584828501610d8c565b91505092915050565b7f6e6f206c69717569646974790000000000000000000000000000000000000000600082015250565b6000610e04600c83610b87565b9150610e0f82610dce565b602082019050919050565b60006020820190508181036000830152610e3381610df7565b9050919050565b7f4e487b7100000000000000000000000000000000000000000000000000000000600052601160045260246000fd5b6000610e7482610920565b91507fffffffffffffffffffffffffffffffffffffffffffffffffffffffffffffffff8203610ea657610ea5610e3a565b5b600182019050919050565b6000606082019050610ec66000830186610b0a565b610ed3602083018561092a565b610ee0604083018461092a565b949350505050565b6000606082019050610efd6000830186610b0a565b610f0a6020830185610b0a565b610f17604083018461092a565b949350505050565b610f2881610b19565b8114610f3357600080fd5b50565b600081519050610f4581610f1f565b92915050565b600060208284031215610f6157610f60610954565b5b6000610f6f84828501610f36565b91505092915050565b7f7472616e7366657246726f6d206661696c656400000000000000000000000000600082015250565b6000610fae601383610b87565b9150610fb982610f78565b602082019050919050565b60006020820190508181036000830152610fdd81610fa1565b9050919050565b7f7472616e73666572206661696c65640000000000000000000000000000000000600082015250565b600061101a600f83610b87565b915061102582610fe4565b602082019050919050565b600060208201905081810360008301526110498161100d565b905091905056fea2646970667358221220fc8c150a9836565f480bff326474eeff063905c1de1bebe5a6639447b3ff34d764736f6c63430008140033","opcodes":"PUSH1 0x80 PUSH1 0x40 MSTORE CALLVALUE DUP1 ISZERO PUSH2 0x10 JUMPI PUSH1 0x0 DUP1 REVERT JUMPDEST POP PUSH2 0x1086 DUP1 PUSH2 0x20 PUSH1 0x0 CODECOPY PUSH1 0x0 RETURN INVALID PUSH1 0x80 PUSH1 0x40 MSTORE CALLVALUE DUP1 ISZERO PUSH2 0x10 JUMPI PUSH1 0x0 DUP1 REVERT JUMPDEST POP PUSH1 0x4 CALLDATASIZE LT PUSH2 0x57 JUMPI PUSH1 0x0 CALLDATALOAD PUSH1 0xE0 SHR DUP1 PUSH4 0x34D9289E EQ PUSH2 0x5C JUMPI DUP1 PUSH4 0x43875AE2 EQ PUSH2 0x7A JUMPI DUP1 PUSH4 0x7B1837DE EQ PUSH2 0x96 JUMPI DUP1 PUSH4 0xA31DA3DF EQ PUSH2 0xB2 JUMPI DUP1 PUSH4 0xE1EC3C68 EQ PUSH2 0xE2 JUMPI JUMPDEST PUSH1 0x0 DUP1 REVERT JUMPDEST PUSH2 0x64 PUSH2 0x116 JUMP JUMPDEST PUSH1 0x40 MLOAD PUSH2 0x71 SWAP2 SWAP1 PUSH2 0x939 JUMP JUMPDEST PUSH1 0x40 MLOAD DUP1 SWAP2 SUB SWAP1 RETURN JUMPDEST PUSH2 0x94 PUSH1 0x4 DUP1 CALLDATASIZE SUB DUP2 ADD SWAP1 PUSH2 0x8F SWAP2 SWAP1 PUSH2 0x9E3 JUMP JUMPDEST PUSH2 0x11C JUMP JUMPDEST STOP JUMPDEST PUSH2 0xB0 PUSH1 0x4 DUP1 CALLDATASIZE SUB DUP2 ADD SWAP1 PUSH2 0xAB SWAP2 SWAP1 PUSH2 0xA36 JUMP JUMPDEST PUSH2 0x2C8 JUMP JUMPDEST STOP JUMPDEST PUSH2 0xCC PUSH1 0x4 DUP1 CALLDATASIZE SUB DUP2 ADD SWAP1 PUSH2 0xC7 SWAP2 SWAP1 PUSH2 0xA76 JUMP JUMPDEST PUSH2 0x3C5 JUMP JUMPDEST PUSH1 0x40 MLOAD PUSH2 0xD9 SWAP2 SWAP1 PUSH2 0x939 JUMP JUMPDEST PUSH1 0x40 MLOAD DUP1 SWAP2 SUB SWAP1 RETURN JUMPDEST PUSH2 0xFC PUSH1 0x4 DUP1 CALLDATASIZE SUB DUP2 ADD SWAP1 PUSH2 0xF7 SWAP2 SWAP1 PUSH2 0xADD JUMP JUMPDEST PUSH2 0x70A JUMP JUMPDEST PUSH1 0x40 MLOAD PUSH2 0x10D SWAP6 SWAP5 SWAP4 SWAP3 SWAP2 SWAP1 PUSH2 0xB34 JUMP JUMPDEST PUSH1 0x40 MLOAD DUP1 SWAP2 SUB SWAP1 RETURN JUMPDEST PUSH1 0x0 SLOAD DUP2 JUMP JUMPDEST PUSH1 0x0 PUSH1 0x1 PUSH1 0x0 DUP6 DUP2 MSTORE PUSH1 0x20 ADD SWAP1 DUP2 MSTORE PUSH1 0x20 ADD PUSH1 0x0 KECCAK256 SWAP1 POP DUP1 PUSH1 0x4 ADD PUSH1 0x0 SWAP1 SLOAD SWAP1 PUSH2 0x100 EXP SWAP1 DIV PUSH1 0xFF AND ISZERO PUSH2 0x185 JUMPI PUSH1 0x40 MLOAD PUSH32 0x8C379A000000000000000000000000000000000000000000000000000000000 DUP2 MSTORE PUSH1 0x4 ADD PUSH2 0x17C SWAP1 PUSH2 0xBE4 JUMP JUMPDEST PUSH1 0x40 MLOAD DUP1 SWAP2 SUB SWAP1 REVERT JUMPDEST PUSH1 0x0 PUSH20 0xFFFFFFFFFFFFFFFFFFFFFFFFFFFFFFFFFFFFFFFF AND DUP3 PUSH20 0xFFFFFFFFFFFFFFFFFFFFFFFFFFFFFFFFFFFFFFFF AND EQ ISZERO DUP1 ISZERO PUSH2 0x1C6 JUMPI POP DUP1 PUSH1 0x2 ADD SLOAD DUP4 LT ISZERO JUMPDEST PUSH2 0x205 JUMPI PUSH1 0x40 MLOAD PUSH32 0x8C379A000000000000000000000000000000000000000000000000000000000 DUP2 MSTORE PUSH1 0x4 ADD PUSH2 0x1FC SWAP1 PUSH2 0xC50 JUMP JUMPDEST PUSH1 0x40 MLOAD DUP1 SWAP2 SUB SWAP1 REVERT JUMPDEST PUSH2 0x256 DUP3 ADDRESS DUP6 DUP5 PUSH1 0x1 ADD PUSH1 0x0 SWAP1 SLOAD SWAP1 PUSH2 0x100 EXP SWAP1 DIV PUSH20 0xFFFFFFFFFFFFFFFFFFFFFFFFFFFFFFFFFFFFFFFF AND PUSH20 0xFFFFFFFFFFFFFFFFFFFFFFFFFFFFFFFFFFFFFFFF AND PUSH2 0x78D SWAP1 SWAP4 SWAP3 SWAP2 SWAP1 PUSH4 0xFFFFFFFF AND JUMP JUMPDEST PUSH1 0x1 DUP2 PUSH1 0x4 ADD PUSH1 0x0 PUSH2 0x100 EXP DUP2 SLOAD DUP2 PUSH1 0xFF MUL NOT AND SWAP1 DUP4 ISZERO ISZERO MUL OR SWAP1 SSTORE POP DUP2 PUSH20 0xFFFFFFFFFFFFFFFFFFFFFFFFFFFFFFFFFFFFFFFF AND DUP5 PUSH32 0xC030DA26557A891F33DBAEE473C007CDFA269ACB9628D7D12E744EC6923ED2B3 DUP6 PUSH1 0x40 MLOAD PUSH2 0x2BA SWAP2 SWAP1 PUSH2 0x939 JUMP JUMPDEST PUSH1 0x40 MLOAD DUP1 SWAP2 SUB SWAP1 LOG3 POP POP POP POP JUMP JUMPDEST PUSH1 0x0 PUSH20 0xFFFFFFFFFFFFFFFFFFFFFFFFFFFFFFFFFFFFFFFF AND DUP3 PUSH20 0xFFFFFFFFFFFFFFFFFFFFFFFFFFFFFFFFFFFFFFFF AND EQ ISZERO DUP1 ISZERO PUSH2 0x305 JUMPI POP PUSH1 0x0 DUP2 GT JUMPDEST PUSH2 0x344 JUMPI PUSH1 0x40 MLOAD PUSH32 0x8C379A000000000000000000000000000000000000000000000000000000000 DUP2 MSTORE PUSH1 0x4 ADD PUSH2 0x33B SWAP1 PUSH2 0xCBC JUMP JUMPDEST PUSH1 0x40 MLOAD DUP1 SWAP2 SUB SWAP1 REVERT JUMPDEST PUSH2 0x371 CALLER ADDRESS DUP4 DUP6 PUSH20 0xFFFFFFFFFFFFFFFFFFFFFFFFFFFFFFFFFFFFFFFF AND PUSH2 0x78D SWAP1 SWAP4 SWAP3 SWAP2 SWAP1 PUSH4 0xFFFFFFFF AND JUMP JUMPDEST CALLER PUSH20 0xFFFFFFFFFFFFFFFFFFFFFFFFFFFFFFFFFFFFFFFF AND PUSH32 0x2D48AC6ACD9C250F93C75E6A8DD61F6F1C062B7F83C1F604CF41A3352DF683FC DUP4 DUP4 PUSH1 0x40 MLOAD PUSH2 0x3B9 SWAP3 SWAP2 SWAP1 PUSH2 0xCDC JUMP JUMPDEST PUSH1 0x40 MLOAD DUP1 SWAP2 SUB SWAP1 LOG2 POP POP JUMP JUMPDEST PUSH1 0x0 DUP1 PUSH20 0xFFFFFFFFFFFFFFFFFFFFFFFFFFFFFFFFFFFFFFFF AND DUP6 PUSH20 0xFFFFFFFFFFFFFFFFFFFFFFFFFFFFFFFFFFFFFFFF AND EQ ISZERO DUP1 ISZERO PUSH2 0x430 JUMPI POP PUSH1 0x0 PUSH20 0xFFFFFFFFFFFFFFFFFFFFFFFFFFFFFFFFFFFFFFFF AND DUP5 PUSH20 0xFFFFFFFFFFFFFFFFFFFFFFFFFFFFFFFFFFFFFFFF AND EQ ISZERO JUMPDEST DUP1 ISZERO PUSH2 0x43C JUMPI POP PUSH1 0x0 DUP4 GT JUMPDEST PUSH2 0x47B JUMPI PUSH1 0x40 MLOAD PUSH32 0x8C379A000000000000000000000000000000000000000000000000000000000 DUP2 MSTORE PUSH1 0x4 ADD PUSH2 0x472 SWAP1 PUSH2 0xD51 JUMP JUMPDEST PUSH1 0x40 MLOAD DUP1 SWAP2 SUB SWAP1 REVERT JUMPDEST DUP3 DUP5 PUSH20 0xFFFFFFFFFFFFFFFFFFFFFFFFFFFFFFFFFFFFFFFF AND PUSH4 0x70A08231 ADDRESS PUSH1 0x40 MLOAD DUP3 PUSH4 0xFFFFFFFF AND PUSH1 0xE0 SHL DUP2 MSTORE PUSH1 0x4 ADD PUSH2 0x4B5 SWAP2 SWAP1 PUSH2 0xD71 JUMP JUMPDEST PUSH1 0x20 PUSH1 0x40 MLOAD DUP1 DUP4 SUB DUP2 DUP7 GAS STATICCALL ISZERO DUP1 ISZERO PUSH2 0x4D2 JUMPI RETURNDATASIZE PUSH1 0x0 DUP1 RETURNDATACOPY RETURNDATASIZE PUSH1 0x0 REVERT JUMPDEST POP POP POP POP PUSH1 0x40 MLOAD RETURNDATASIZE PUSH1 0x1F NOT PUSH1 0x1F DUP3 ADD AND DUP3 ADD DUP1 PUSH1 0x40 MSTORE POP DUP2 ADD SWAP1 PUSH2 0x4F6 SWAP2 SWAP1 PUSH2 0xDA1 JUMP JUMPDEST LT ISZERO PUSH2 0x537 JUMPI PUSH1 0x40 MLOAD PUSH32 0x8C379A000000000000000000000000000000000000000000000000000000000 DUP2 MSTORE PUSH1 0x4 ADD PUSH2 0x52E SWAP1 PUSH2 0xE1A JUMP JUMPDEST PUSH1 0x40 MLOAD DUP1 SWAP2 SUB SWAP1 REVERT JUMPDEST PUSH1 0x0 DUP1 DUP2 SLOAD DUP1 SWAP3 SWAP2 SWAP1 PUSH2 0x549 SWAP1 PUSH2 0xE69 JUMP JUMPDEST SWAP2 SWAP1 POP SSTORE POP PUSH1 0x40 MLOAD DUP1 PUSH1 0xA0 ADD PUSH1 0x40 MSTORE DUP1 DUP7 PUSH20 0xFFFFFFFFFFFFFFFFFFFFFFFFFFFFFFFFFFFFFFFF AND DUP2 MSTORE PUSH1 0x20 ADD DUP6 PUSH20 0xFFFFFFFFFFFFFFFFFFFFFFFFFFFFFFFFFFFFFFFF AND DUP2 MSTORE PUSH1 0x20 ADD DUP5 DUP2 MSTORE PUSH1 0x20 ADD DUP4 DUP2 MSTORE PUSH1 0x20 ADD PUSH1 0x0 ISZERO ISZERO DUP2 MSTORE POP PUSH1 0x1 PUSH1 0x0 DUP1 SLOAD DUP2 MSTORE PUSH1 0x20 ADD SWAP1 DUP2 MSTORE PUSH1 0x20 ADD PUSH1 0x0 KECCAK256 PUSH1 0x0 DUP3 ADD MLOAD DUP2 PUSH1 0x0 ADD PUSH1 0x0 PUSH2 0x100 EXP DUP2 SLOAD DUP2 PUSH20 0xFFFFFFFFFFFFFFFFFFFFFFFFFFFFFFFFFFFFFFFF MUL NOT AND SWAP1 DUP4 PUSH20 0xFFFFFFFFFFFFFFFFFFFFFFFFFFFFFFFFFFFFFFFF AND MUL OR SWAP1 SSTORE POP PUSH1 0x20 DUP3 ADD MLOAD DUP2 PUSH1 0x1 ADD PUSH1 0x0 PUSH2 0x100 EXP DUP2 SLOAD DUP2 PUSH20 0xFFFFFFFFFFFFFFFFFFFFFFFFFFFFFFFFFFFFFFFF MUL NOT AND SWAP1 DUP4 PUSH20 0xFFFFFFFFFFFFFFFFFFFFFFFFFFFFFFFFFFFFFFFF AND MUL OR SWAP1 SSTORE POP PUSH1 0x40 DUP3 ADD MLOAD DUP2 PUSH1 0x2 ADD SSTORE PUSH1 0x60 DUP3 ADD MLOAD DUP2 PUSH1 0x3 ADD SSTORE PUSH1 0x80 DUP3 ADD MLOAD DUP2 PUSH1 0x4 ADD PUSH1 0x0 PUSH2 0x100 EXP DUP2 SLOAD DUP2 PUSH1 0xFF MUL NOT AND SWAP1 DUP4 ISZERO ISZERO MUL OR SWAP1 SSTORE POP SWAP1 POP POP PUSH2 0x6A8 DUP6 DUP5 DUP7 PUSH20 0xFFFFFFFFFFFFFFFFFFFFFFFFFFFFFFFFFFFFFFFF AND PUSH2 0x858 SWAP1 SWAP3 SWAP2 SWAP1 PUSH4 0xFFFFFFFF AND JUMP JUMPDEST DUP5 PUSH20 0xFFFFFFFFFFFFFFFFFFFFFFFFFFFFFFFFFFFFFFFF AND PUSH1 0x0 SLOAD PUSH32 0xEF18174796A5D2F91D51DC5E907A4D7867BBD6E800F6225168E0453D581D0DCD DUP7 DUP7 DUP7 PUSH1 0x40 MLOAD PUSH2 0x6F5 SWAP4 SWAP3 SWAP2 SWAP1 PUSH2 0xEB1 JUMP JUMPDEST PUSH1 0x40 MLOAD DUP1 SWAP2 SUB SWAP1 LOG3 PUSH1 0x0 SLOAD SWAP1 POP SWAP5 SWAP4 POP POP POP POP JUMP JUMPDEST PUSH1 0x1 PUSH1 0x20 MSTORE DUP1 PUSH1 0x0 MSTORE PUSH1 0x40 PUSH1 0x0 KECCAK256 PUSH1 0x0 SWAP2 POP SWAP1 POP DUP1 PUSH1 0x0 ADD PUSH1 0x0 SWAP1 SLOAD SWAP1 PUSH2 0x100 EXP SWAP1 DIV PUSH20 0xFFFFFFFFFFFFFFFFFFFFFFFFFFFFFFFFFFFFFFFF AND SWAP1 DUP1 PUSH1 0x1 ADD PUSH1 0x0 SWAP1 SLOAD SWAP1 PUSH2 0x100 EXP SWAP1 DIV PUSH20 0xFFFFFFFFFFFFFFFFFFFFFFFFFFFFFFFFFFFFFFFF AND SWAP1 DUP1 PUSH1 0x2 ADD SLOAD SWAP1 DUP1 PUSH1 0x3 ADD SLOAD SWAP1 DUP1 PUSH1 0x4 ADD PUSH1 0x0 SWAP1 SLOAD SWAP1 PUSH2 0x100 EXP SWAP1 DIV PUSH1 0xFF AND SWAP1 POP DUP6 JUMP JUMPDEST PUSH1 0x0 DUP5 PUSH20 0xFFFFFFFFFFFFFFFFFFFFFFFFFFFFFFFFFFFFFFFF AND PUSH4 0x23B872DD DUP6 DUP6 DUP6 PUSH1 0x40 MLOAD DUP5 PUSH4 0xFFFFFFFF AND PUSH1 0xE0 SHL DUP2 MSTORE PUSH1 0x4 ADD PUSH2 0x7CC SWAP4 SWAP3 SWAP2 SWAP1 PUSH2 0xEE8 JUMP JUMPDEST PUSH1 0x20 PUSH1 0x40 MLOAD DUP1 DUP4 SUB DUP2 PUSH1 0x0 DUP8 GAS CALL ISZERO DUP1 ISZERO PUSH2 0x7EB JUMPI RETURNDATASIZE PUSH1 0x0 DUP1 RETURNDATACOPY RETURNDATASIZE PUSH1 0x0 REVERT JUMPDEST POP POP POP POP PUSH1 0x40 MLOAD RETURNDATASIZE PUSH1 0x1F NOT PUSH1 0x1F DUP3 ADD AND DUP3 ADD DUP1 PUSH1 0x40 MSTORE POP DUP2 ADD SWAP1 PUSH2 0x80F SWAP2 SWAP1 PUSH2 0xF4B JUMP JUMPDEST SWAP1 POP DUP1 PUSH2 0x851 JUMPI PUSH1 0x40 MLOAD PUSH32 0x8C379A000000000000000000000000000000000000000000000000000000000 DUP2 MSTORE PUSH1 0x4 ADD PUSH2 0x848 SWAP1 PUSH2 0xFC4 JUMP JUMPDEST PUSH1 0x40 MLOAD DUP1 SWAP2 SUB SWAP1 REVERT JUMPDEST POP POP POP POP POP JUMP JUMPDEST PUSH1 0x0 DUP4 PUSH20 0xFFFFFFFFFFFFFFFFFFFFFFFFFFFFFFFFFFFFFFFF AND PUSH4 0xA9059CBB DUP5 DUP5 PUSH1 0x40 MLOAD DUP4 PUSH4 0xFFFFFFFF AND PUSH1 0xE0 SHL DUP2 MSTORE PUSH1 0x4 ADD PUSH2 0x895 SWAP3 SWAP2 SWAP1 PUSH2 0xCDC JUMP JUMPDEST PUSH1 0x20 PUSH1 0x40 MLOAD DUP1 DUP4 SUB DUP2 PUSH1 0x0 DUP8 GAS CALL ISZERO DUP1 ISZERO PUSH2 0x8B4 JUMPI RETURNDATASIZE PUSH1 0x0 DUP1 RETURNDATACOPY RETURNDATASIZE PUSH1 0x0 REVERT JUMPDEST POP POP POP POP PUSH1 0x40 MLOAD RETURNDATASIZE PUSH1 0x1F NOT PUSH1 0x1F DUP3 ADD AND DUP3 ADD DUP1 PUSH1 0x40 MSTORE POP DUP2 ADD SWAP1 PUSH2 0x8D8 SWAP2 SWAP1 PUSH2 0xF4B JUMP JUMPDEST SWAP1 POP DUP1 PUSH2 0x91A JUMPI PUSH1 0x40 MLOAD PUSH32 0x8C379A000000000000000000000000000000000000000000000000000000000 DUP2 MSTORE PUSH1 0x4 ADD PUSH2 0x911 SWAP1 PUSH2 0x1030 JUMP JUMPDEST PUSH1 0x40 MLOAD DUP1 SWAP2 SUB SWAP1 REVERT JUMPDEST POP POP POP POP JUMP JUMPDEST PUSH1 0x0 DUP2 SWAP1 POP SWAP2 SWAP1 POP JUMP JUMPDEST PUSH2 0x933 DUP2 PUSH2 0x920 JUMP JUMPDEST DUP3 MSTORE POP POP JUMP JUMPDEST PUSH1 0x0 PUSH1 0x20 DUP3 ADD SWAP1 POP PUSH2 0x94E PUSH1 0x0 DUP4 ADD DUP5 PUSH2 0x92A JUMP JUMPDEST SWAP3 SWAP2 POP POP JUMP JUMPDEST PUSH1 0x0 DUP1 REVERT JUMPDEST PUSH2 0x962 DUP2 PUSH2 0x920 JUMP JUMPDEST DUP2 EQ PUSH2 0x96D JUMPI PUSH1 0x0 DUP1 REVERT JUMPDEST POP JUMP JUMPDEST PUSH1 0x0 DUP2 CALLDATALOAD SWAP1 POP PUSH2 0x97F DUP2 PUSH2 0x959 JUMP JUMPDEST SWAP3 SWAP2 POP POP JUMP JUMPDEST PUSH1 0x0 PUSH20 0xFFFFFFFFFFFFFFFFFFFFFFFFFFFFFFFFFFFFFFFF DUP3 AND SWAP1 POP SWAP2 SWAP1 POP JUMP JUMPDEST PUSH1 0x0 PUSH2 0x9B0 DUP3 PUSH2 0x985 JUMP JUMPDEST SWAP1 POP SWAP2 SWAP1 POP JUMP JUMPDEST PUSH2 0x9C0 DUP2 PUSH2 0x9A5 JUMP JUMPDEST DUP2 EQ PUSH2 0x9CB JUMPI PUSH1 0x0 DUP1 REVERT JUMPDEST POP JUMP JUMPDEST PUSH1 0x0 DUP2 CALLDATALOAD SWAP1 POP PUSH2 0x9DD DUP2 PUSH2 0x9B7 JUMP JUMPDEST SWAP3 SWAP2 POP POP JUMP JUMPDEST PUSH1 0x0 DUP1 PUSH1 0x0 PUSH1 0x60 DUP5 DUP7 SUB SLT ISZERO PUSH2 0x9FC JUMPI PUSH2 0x9FB PUSH2 0x954 JUMP JUMPDEST JUMPDEST PUSH1 0x0 PUSH2 0xA0A DUP7 DUP3 DUP8 ADD PUSH2 0x970 JUMP JUMPDEST SWAP4 POP POP PUSH1 0x20 PUSH2 0xA1B DUP7 DUP3 DUP8 ADD PUSH2 0x970 JUMP JUMPDEST SWAP3 POP POP PUSH1 0x40 PUSH2 0xA2C DUP7 DUP3 DUP8 ADD PUSH2 0x9CE JUMP JUMPDEST SWAP2 POP POP SWAP3 POP SWAP3 POP SWAP3 JUMP JUMPDEST PUSH1 0x0 DUP1 PUSH1 0x40 DUP4 DUP6 SUB SLT ISZERO PUSH2 0xA4D JUMPI PUSH2 0xA4C PUSH2 0x954 JUMP JUMPDEST JUMPDEST PUSH1 0x0 PUSH2 0xA5B DUP6 DUP3 DUP7 ADD PUSH2 0x9CE JUMP JUMPDEST SWAP3 POP POP PUSH1 0x20 PUSH2 0xA6C DUP6 DUP3 DUP7 ADD PUSH2 0x970 JUMP JUMPDEST SWAP2 POP POP SWAP3 POP SWAP3 SWAP1 POP JUMP JUMPDEST PUSH1 0x0 DUP1 PUSH1 0x0 DUP1 PUSH1 0x80 DUP6 DUP8 SUB SLT ISZERO PUSH2 0xA90 JUMPI PUSH2 0xA8F PUSH2 0x954 JUMP JUMPDEST JUMPDEST PUSH1 0x0 PUSH2 0xA9E DUP8 DUP3 DUP9 ADD PUSH2 0x9CE JUMP JUMPDEST SWAP5 POP POP PUSH1 0x20 PUSH2 0xAAF DUP8 DUP3 DUP9 ADD PUSH2 0x9CE JUMP JUMPDEST SWAP4 POP POP PUSH1 0x40 PUSH2 0xAC0 DUP8 DUP3 DUP9 ADD PUSH2 0x970 JUMP JUMPDEST SWAP3 POP POP PUSH1 0x60 PUSH2 0xAD1 DUP8 DUP3 DUP9 ADD PUSH2 0x970 JUMP JUMPDEST SWAP2 POP POP SWAP3 SWAP6 SWAP2 SWAP5 POP SWAP3 POP JUMP JUMPDEST PUSH1 0x0 PUSH1 0x20 DUP3 DUP5 SUB SLT ISZERO PUSH2 0xAF3 JUMPI PUSH2 0xAF2 PUSH2 0x954 JUMP JUMPDEST JUMPDEST PUSH1 0x0 PUSH2 0xB01 DUP5 DUP3 DUP6 ADD PUSH2 0x970 JUMP JUMPDEST SWAP2 POP POP SWAP3 SWAP2 POP POP JUMP JUMPDEST PUSH2 0xB13 DUP2 PUSH2 0x9A5 JUMP JUMPDEST DUP3 MSTORE POP POP JUMP JUMPDEST PUSH1 0x0 DUP2 ISZERO ISZERO SWAP1 POP SWAP2 SWAP1 POP JUMP JUMPDEST PUSH2 0xB2E DUP2 PUSH2 0xB19 JUMP JUMPDEST DUP3 MSTORE POP POP JUMP JUMPDEST PUSH1 0x0 PUSH1 0xA0 DUP3 ADD SWAP1 POP PUSH2 0xB49 PUSH1 0x0 DUP4 ADD DUP9 PUSH2 0xB0A JUMP JUMPDEST PUSH2 0xB56 PUSH1 0x20 DUP4 ADD DUP8 PUSH2 0xB0A JUMP JUMPDEST PUSH2 0xB63 PUSH1 0x40 DUP4 ADD DUP7 PUSH2 0x92A JUMP JUMPDEST PUSH2 0xB70 PUSH1 0x60 DUP4 ADD DUP6 PUSH2 0x92A JUMP JUMPDEST PUSH2 0xB7D PUSH1 0x80 DUP4 ADD DUP5 PUSH2 0xB25 JUMP JUMPDEST SWAP7 SWAP6 POP POP POP POP POP POP JUMP JUMPDEST PUSH1 0x0 DUP3 DUP3 MSTORE PUSH1 0x20 DUP3 ADD SWAP1 POP SWAP3 SWAP2 POP POP JUMP JUMPDEST PUSH32 0x7265706169640000000000000000000000000000000000000000000000000000 PUSH1 0x0 DUP3 ADD MSTORE POP JUMP JUMPDEST PUSH1 0x0 PUSH2 0xBCE PUSH1 0x6 DUP4 PUSH2 0xB87 JUMP JUMPDEST SWAP2 POP PUSH2 0xBD9 DUP3 PUSH2 0xB98 JUMP JUMPDEST PUSH1 0x20 DUP3 ADD SWAP1 POP SWAP2 SWAP1 POP JUMP JUMPDEST PUSH1 0x0 PUSH1 0x20 DUP3 ADD SWAP1 POP DUP2 DUP2 SUB PUSH1 0x0 DUP4 ADD MSTORE PUSH2 0xBFD DUP2 PUSH2 0xBC1 JUMP JUMPDEST SWAP1 POP SWAP2 SWAP1 POP JUMP JUMPDEST PUSH32 0x6261642072657061790000000000000000000000000000000000000000000000 PUSH1 0x0 DUP3 ADD MSTORE POP JUMP JUMPDEST PUSH1 0x0 PUSH2 0xC3A PUSH1 0x9 DUP4 PUSH2 0xB87 JUMP JUMPDEST SWAP2 POP PUSH2 0xC45 DUP3 PUSH2 0xC04 JUMP JUMPDEST PUSH1 0x20 DUP3 ADD SWAP1 POP SWAP2 SWAP1 POP JUMP JUMPDEST PUSH1 0x0 PUSH1 0x20 DUP3 ADD SWAP1 POP DUP2 DUP2 SUB PUSH1 0x0 DUP4 ADD MSTORE PUSH2 0xC69 DUP2 PUSH2 0xC2D JUMP JUMPDEST SWAP1 POP SWAP2 SWAP1 POP JUMP JUMPDEST PUSH32 0x6261642066756E64000000000000000000000000000000000000000000000000 PUSH1 0x0 DUP3 ADD MSTORE POP JUMP JUMPDEST PUSH1 0x0 PUSH2 0xCA6 PUSH1 0x8 DUP4 PUSH2 0xB87 JUMP JUMPDEST SWAP2 POP PUSH2 0xCB1 DUP3 PUSH2 0xC70 JUMP JUMPDEST PUSH1 0x20 DUP3 ADD SWAP1 POP SWAP2 SWAP1 POP JUMP JUMPDEST PUSH1 0x0 PUSH1 0x20 DUP3 ADD SWAP1 POP DUP2 DUP2 SUB PUSH1 0x0 DUP4 ADD MSTORE PUSH2 0xCD5 DUP2 PUSH2 0xC99 JUMP JUMPDEST SWAP1 POP SWAP2 SWAP1 POP JUMP JUMPDEST PUSH1 0x0 PUSH1 0x40 DUP3 ADD SWAP1 POP PUSH2 0xCF1 PUSH1 0x0 DUP4 ADD DUP6 PUSH2 0xB0A JUMP JUMPDEST PUSH2 0xCFE PUSH1 0x20 DUP4 ADD DUP5 PUSH2 0x92A JUMP JUMPDEST SWAP4 SWAP3 POP POP POP JUMP JUMPDEST PUSH32 0x6261642061726773000000000000000000000000000000000000000000000000 PUSH1 0x0 DUP3 ADD MSTORE POP JUMP JUMPDEST PUSH1 0x0 PUSH2 0xD3B PUSH1 0x8 DUP4 PUSH2 0xB87 JUMP JUMPDEST SWAP2 POP PUSH2 0xD46 DUP3 PUSH2 0xD05 JUMP JUMPDEST PUSH1 0x20 DUP3 ADD SWAP1 POP SWAP2 SWAP1 POP JUMP JUMPDEST PUSH1 0x0 PUSH1 0x20 DUP3 ADD SWAP1 POP DUP2 DUP2 SUB PUSH1 0x0 DUP4 ADD MSTORE PUSH2 0xD6A DUP2 PUSH2 0xD2E JUMP JUMPDEST SWAP1 POP SWAP2 SWAP1 POP JUMP JUMPDEST PUSH1 0x0 PUSH1 0x20 DUP3 ADD SWAP1 POP PUSH2 0xD86 PUSH1 0x0 DUP4 ADD DUP5 PUSH2 0xB0A JUMP JUMPDEST SWAP3 SWAP2 POP POP JUMP JUMPDEST PUSH1 0x0 DUP2 MLOAD SWAP1 POP PUSH2 0xD9B DUP2 PUSH2 0x959 JUMP JUMPDEST SWAP3 SWAP2 POP POP JUMP JUMPDEST PUSH1 0x0 PUSH1 0x20 DUP3 DUP5 SUB SLT ISZERO PUSH2 0xDB7 JUMPI PUSH2 0xDB6 PUSH2 0x954 JUMP JUMPDEST JUMPDEST PUSH1 0x0 PUSH2 0xDC5 DUP5 DUP3 DUP6 ADD PUSH2 0xD8C JUMP JUMPDEST SWAP2 POP POP SWAP3 SWAP2 POP POP JUMP JUMPDEST PUSH32 0x6E6F206C69717569646974790000000000000000000000000000000000000000 PUSH1 0x0 DUP3 ADD MSTORE POP JUMP JUMPDEST PUSH1 0x0 PUSH2 0xE04 PUSH1 0xC DUP4 PUSH2 0xB87 JUMP JUMPDEST SWAP2 POP PUSH2 0xE0F DUP3 PUSH2 0xDCE JUMP JUMPDEST PUSH1 0x20 DUP3 ADD SWAP1 POP SWAP2 SWAP1 POP JUMP JUMPDEST PUSH1 0x0 PUSH1 0x20 DUP3 ADD SWAP1 POP DUP2 DUP2 SUB PUSH1 0x0 DUP4 ADD MSTORE PUSH2 0xE33 DUP2 PUSH2 0xDF7 JUMP JUMPDEST SWAP1 POP SWAP2 SWAP1 POP JUMP JUMPDEST PUSH32 0x4E487B7100000000000000000000000000000000000000000000000000000000 PUSH1 0x0 MSTORE PUSH1 0x11 PUSH1 0x4 MSTORE PUSH1 0x24 PUSH1 0x0 REVERT JUMPDEST PUSH1 0x0 PUSH2 0xE74 DUP3 PUSH2 0x920 JUMP JUMPDEST SWAP2 POP PUSH32 0xFFFFFFFFFFFFFFFFFFFFFFFFFFFFFFFFFFFFFFFFFFFFFFFFFFFFFFFFFFFFFFFF DUP3 SUB PUSH2 0xEA6 JUMPI PUSH2 0xEA5 PUSH2 0xE3A JUMP JUMPDEST JUMPDEST PUSH1 0x1 DUP3 ADD SWAP1 POP SWAP2 SWAP1 POP JUMP JUMPDEST PUSH1 0x0 PUSH1 0x60 DUP3 ADD SWAP1 POP PUSH2 0xEC6 PUSH1 0x0 DUP4 ADD DUP7 PUSH2 0xB0A JUMP JUMPDEST PUSH2 0xED3 PUSH1 0x20 DUP4 ADD DUP6 PUSH2 0x92A JUMP JUMPDEST PUSH2 0xEE0 PUSH1 0x40 DUP4 ADD DUP5 PUSH2 0x92A JUMP JUMPDEST SWAP5 SWAP4 POP POP POP POP JUMP JUMPDEST PUSH1 0x0 PUSH1 0x60 DUP3 ADD SWAP1 POP PUSH2 0xEFD PUSH1 0x0 DUP4 ADD DUP7 PUSH2 0xB0A JUMP JUMPDEST PUSH2 0xF0A PUSH1 0x20 DUP4 ADD DUP6 PUSH2 0xB0A JUMP JUMPDEST PUSH2 0xF17 PUSH1 0x40 DUP4 ADD DUP5 PUSH2 0x92A JUMP JUMPDEST SWAP5 SWAP4 POP POP POP POP JUMP JUMPDEST PUSH2 0xF28 DUP2 PUSH2 0xB19 JUMP JUMPDEST DUP2 EQ PUSH2 0xF33 JUMPI PUSH1 0x0 DUP1 REVERT JUMPDEST POP JUMP JUMPDEST PUSH1 0x0 DUP2 MLOAD SWAP1 POP PUSH2 0xF45 DUP2 PUSH2 0xF1F JUMP JUMPDEST SWAP3 SWAP2 POP POP JUMP JUMPDEST PUSH1 0x0 PUSH1 0x20 DUP3 DUP5 SUB SLT ISZERO PUSH2 0xF61 JUMPI PUSH2 0xF60 PUSH2 0x954 JUMP JUMPDEST JUMPDEST PUSH1 0x0 PUSH2 0xF6F DUP5 DUP3 DUP6 ADD PUSH2 0xF36 JUMP JUMPDEST SWAP2 POP POP SWAP3 SWAP2 POP POP JUMP JUMPDEST PUSH32 0x7472616E7366657246726F6D206661696C656400000000000000000000000000 PUSH1 0x0 DUP3 ADD MSTORE POP JUMP JUMPDEST PUSH1 0x0 PUSH2 0xFAE PUSH1 0x13 DUP4 PUSH2 0xB87 JUMP JUMPDEST SWAP2 POP PUSH2 0xFB9 DUP3 PUSH2 0xF78 JUMP JUMPDEST PUSH1 0x20 DUP3 ADD SWAP1 POP SWAP2 SWAP1 POP JUMP JUMPDEST PUSH1 0x0 PUSH1 0x20 DUP3 ADD SWAP1 POP DUP2 DUP2 SUB PUSH1 0x0 DUP4 ADD MSTORE PUSH2 0xFDD DUP2 PUSH2 0xFA1 JUMP JUMPDEST SWAP1 POP SWAP2 SWAP1 POP JUMP JUMPDEST PUSH32 0x7472616E73666572206661696C65640000000000000000000000000000000000 PUSH1 0x0 DUP3 ADD MSTORE POP JUMP JUMPDEST PUSH1 0x0 PUSH2 0x101A PUSH1 0xF DUP4 PUSH2 0xB87 JUMP JUMPDEST SWAP2 POP PUSH2 0x1025 DUP3 PUSH2 0xFE4 JUMP JUMPDEST PUSH1 0x20 DUP3 ADD SWAP1 POP SWAP2 SWAP1 POP JUMP JUMPDEST PUSH1 0x0 PUSH1 0x20 DUP3 ADD SWAP1 POP DUP2 DUP2 SUB PUSH1 0x0 DUP4 ADD MSTORE PUSH2 0x1049 DUP2 PUSH2 0x100D JUMP JUMPDEST SWAP1 POP SWAP2 SWAP1 POP JUMP INVALID LOG2 PUSH5 0x6970667358 0x22 SLT KECCAK256 0xFC DUP13 ISZERO EXP SWAP9 CALLDATASIZE JUMP PUSH0 BASEFEE SIGNEXTEND SELFDESTRUCT ORIGIN PUSH5 0x74EEFF0639 SDIV 0xC1 0xDE SHL 0xEB 0xE5 0xA6 PUSH4 0x9447B3FF CALLVALUE 0xD7 PUSH5 0x736F6C6343 STOP ADDMOD EQ STOP CALLER "},"methodIdentifiers":{"borrowFor(address,address,uint256,uint256)":"a31da3df","fund(address,uint256)":"7b1837de","loanCounter()":"34d9289e","loans(uint256)":"e1ec3c68","repayFrom(uint256,uint256,address)":"43875ae2"}}}}}